{
  "_format": "hh-sol-artifact-1",
  "contractName": "CollectionManager",
  "sourceName": "contracts/CollectionManager.sol",
  "abi": [
    {
      "inputs": [
        {
          "internalType": "address",
          "name": "initialOwner",
          "type": "address"
        }
      ],
      "stateMutability": "nonpayable",
      "type": "constructor"
    },
    {
      "inputs": [],
      "name": "FailedToDeployContract",
      "type": "error"
    },
    {
      "inputs": [],
      "name": "InvalidPromo",
      "type": "error"
    },
    {
      "inputs": [
        {
          "internalType": "uint256",
          "name": "price",
          "type": "uint256"
        },
        {
          "internalType": "uint256",
          "name": "getPrice",
          "type": "uint256"
        }
      ],
      "name": "NotEnoughFunds",
      "type": "error"
    },
    {
      "inputs": [
        {
          "internalType": "address",
          "name": "owner",
          "type": "address"
        }
      ],
      "name": "OwnableInvalidOwner",
      "type": "error"
    },
    {
      "inputs": [
        {
          "internalType": "address",
          "name": "account",
          "type": "address"
        }
      ],
      "name": "OwnableUnauthorizedAccount",
      "type": "error"
    },
    {
      "inputs": [
        {
          "internalType": "bool",
          "name": "used",
          "type": "bool"
        }
      ],
      "name": "PromoUsedAlredy",
      "type": "error"
    },
    {
      "inputs": [],
      "name": "TokenNotExsist",
      "type": "error"
    },
    {
      "inputs": [],
      "name": "ZeroCollectionAddress",
      "type": "error"
    },
    {
      "inputs": [],
      "name": "arraysMisMatch",
      "type": "error"
    },
    {
      "inputs": [],
      "name": "collectionNotFound",
      "type": "error"
    },
    {
      "inputs": [],
      "name": "incorrectAddress",
      "type": "error"
    },
    {
      "inputs": [],
      "name": "incorrectCollectionAddress",
      "type": "error"
    },
    {
      "inputs": [],
      "name": "incorrectId",
      "type": "error"
    },
    {
      "inputs": [],
      "name": "incorrectIndex",
      "type": "error"
    },
    {
      "inputs": [],
      "name": "incorrectNameLength",
      "type": "error"
    },
    {
      "inputs": [],
      "name": "incorrectPrice",
      "type": "error"
    },
    {
      "inputs": [],
      "name": "incorrectQuantity",
      "type": "error"
    },
    {
      "inputs": [],
      "name": "incorrectSymbolLength",
      "type": "error"
    },
    {
      "inputs": [],
      "name": "incorrectURI",
      "type": "error"
    },
    {
      "inputs": [],
      "name": "invalidPromoCode",
      "type": "error"
    },
    {
      "inputs": [],
      "name": "notEnoughFunds",
      "type": "error"
    },
    {
      "inputs": [],
      "name": "notEnoughProductsInStock",
      "type": "error"
    },
    {
      "inputs": [],
      "name": "onlyCollectionOwner",
      "type": "error"
    },
    {
      "inputs": [],
      "name": "onlyMainContract",
      "type": "error"
    },
    {
      "inputs": [],
      "name": "promoCodeNotFound",
      "type": "error"
    },
    {
      "anonymous": false,
      "inputs": [
        {
          "indexed": false,
          "internalType": "address",
          "name": "newCollectionAddress",
          "type": "address"
        },
        {
          "indexed": false,
          "internalType": "address",
          "name": "collectionOwner",
          "type": "address"
        },
        {
          "indexed": false,
          "internalType": "string",
          "name": "collectionURI",
          "type": "string"
        },
        {
          "indexed": false,
          "internalType": "string",
          "name": "collectionName",
          "type": "string"
        },
        {
          "indexed": false,
          "internalType": "uint256",
          "name": "price",
          "type": "uint256"
        },
        {
          "indexed": false,
          "internalType": "uint256",
          "name": "id",
          "type": "uint256"
        },
        {
          "indexed": false,
          "internalType": "uint256",
          "name": "amountOfStock",
          "type": "uint256"
        }
      ],
      "name": "CollectionCreated",
      "type": "event"
    },
    {
      "anonymous": false,
      "inputs": [
        {
          "indexed": true,
          "internalType": "address",
          "name": "previousOwner",
          "type": "address"
        },
        {
          "indexed": true,
          "internalType": "address",
          "name": "newOwner",
          "type": "address"
        }
      ],
      "name": "OwnershipTransferred",
      "type": "event"
    },
    {
      "anonymous": false,
      "inputs": [
        {
          "indexed": true,
          "internalType": "address",
          "name": "user",
          "type": "address"
        },
        {
          "indexed": true,
          "internalType": "address",
          "name": "collectionAddress",
          "type": "address"
        }
      ],
      "name": "PromoCodeSuccessfullyUsed",
      "type": "event"
    },
    {
      "inputs": [
        {
          "internalType": "uint256",
          "name": "_amount",
          "type": "uint256"
        },
        {
          "internalType": "uint256",
          "name": "_id",
          "type": "uint256"
        },
        {
          "internalType": "address",
          "name": "_user",
          "type": "address"
        }
      ],
      "name": "_generatePromoCode",
      "outputs": [],
      "stateMutability": "nonpayable",
      "type": "function"
    },
    {
      "inputs": [
        {
          "internalType": "uint256",
          "name": "_newPrice",
          "type": "uint256"
        },
        {
          "internalType": "uint256",
          "name": "_id",
          "type": "uint256"
        }
      ],
      "name": "changePrice",
      "outputs": [],
      "stateMutability": "payable",
      "type": "function"
    },
    {
      "inputs": [
        {
          "internalType": "uint256",
          "name": "_newQuantity",
          "type": "uint256"
        },
        {
          "internalType": "uint256",
          "name": "_id",
          "type": "uint256"
        }
      ],
      "name": "changeQuantityInStock",
      "outputs": [],
      "stateMutability": "payable",
      "type": "function"
    },
    {
      "inputs": [
        {
          "internalType": "uint256",
          "name": "_id",
          "type": "uint256"
        }
      ],
      "name": "collectionExist",
      "outputs": [
        {
          "internalType": "bool",
          "name": "",
          "type": "bool"
        }
      ],
      "stateMutability": "view",
      "type": "function"
    },
    {
      "inputs": [
        {
          "internalType": "uint256",
          "name": "",
          "type": "uint256"
        }
      ],
      "name": "collections",
      "outputs": [
        {
          "internalType": "string",
          "name": "name",
          "type": "string"
        },
        {
          "internalType": "string",
          "name": "symbol",
          "type": "string"
        },
        {
          "internalType": "address",
          "name": "collectionOwner",
          "type": "address"
        },
        {
          "internalType": "string",
          "name": "collectionURI",
          "type": "string"
        },
        {
          "internalType": "uint256",
          "name": "price",
          "type": "uint256"
        },
        {
          "internalType": "uint256",
          "name": "quantityInStock",
          "type": "uint256"
        },
        {
          "internalType": "address",
          "name": "collectionAddress",
          "type": "address"
        },
        {
          "internalType": "uint256",
          "name": "id",
          "type": "uint256"
        }
      ],
      "stateMutability": "view",
      "type": "function"
    },
    {
      "inputs": [
        {
          "internalType": "string",
          "name": "_name",
          "type": "string"
        },
        {
          "internalType": "string",
          "name": "_symbol",
          "type": "string"
        },
        {
          "internalType": "string",
          "name": "_collectionURI",
          "type": "string"
        },
        {
          "internalType": "uint256",
          "name": "_price",
          "type": "uint256"
        },
        {
          "internalType": "uint256",
          "name": "_quantityInStock",
          "type": "uint256"
        }
      ],
      "name": "createCollection",
      "outputs": [],
      "stateMutability": "payable",
      "type": "function"
    },
    {
      "inputs": [
        {
          "internalType": "uint256",
          "name": "_id",
          "type": "uint256"
        }
      ],
      "name": "getAddressById",
      "outputs": [
        {
          "internalType": "address",
          "name": "",
          "type": "address"
        }
      ],
      "stateMutability": "view",
      "type": "function"
    },
    {
      "inputs": [
        {
          "internalType": "address",
          "name": "_seller",
          "type": "address"
        }
      ],
      "name": "getCollectionInfoByAddressOwner",
      "outputs": [
        {
          "components": [
            {
              "internalType": "string",
              "name": "name",
              "type": "string"
            },
            {
              "internalType": "string",
              "name": "symbol",
              "type": "string"
            },
            {
              "internalType": "address",
              "name": "collectionOwner",
              "type": "address"
            },
            {
              "internalType": "string",
              "name": "collectionURI",
              "type": "string"
            },
            {
              "internalType": "uint256",
              "name": "price",
              "type": "uint256"
            },
            {
              "internalType": "uint256",
              "name": "quantityInStock",
              "type": "uint256"
            },
            {
              "internalType": "address",
              "name": "collectionAddress",
              "type": "address"
            },
            {
              "internalType": "uint256",
              "name": "id",
              "type": "uint256"
            }
          ],
          "internalType": "struct ICollectionManager.CollectionInfo",
          "name": "",
          "type": "tuple"
        }
      ],
      "stateMutability": "view",
      "type": "function"
    },
    {
      "inputs": [
        {
          "internalType": "address",
          "name": "_collection",
          "type": "address"
        }
      ],
      "name": "getCollectionInfoByCollectionAddress",
      "outputs": [
        {
          "components": [
            {
              "internalType": "string",
              "name": "name",
              "type": "string"
            },
            {
              "internalType": "string",
              "name": "symbol",
              "type": "string"
            },
            {
              "internalType": "address",
              "name": "collectionOwner",
              "type": "address"
            },
            {
              "internalType": "string",
              "name": "collectionURI",
              "type": "string"
            },
            {
              "internalType": "uint256",
              "name": "price",
              "type": "uint256"
            },
            {
              "internalType": "uint256",
              "name": "quantityInStock",
              "type": "uint256"
            },
            {
              "internalType": "address",
              "name": "collectionAddress",
              "type": "address"
            },
            {
              "internalType": "uint256",
              "name": "id",
              "type": "uint256"
            }
          ],
          "internalType": "struct ICollectionManager.CollectionInfo",
          "name": "",
          "type": "tuple"
        }
      ],
      "stateMutability": "view",
      "type": "function"
    },
    {
      "inputs": [
        {
          "internalType": "uint256",
          "name": "_id",
          "type": "uint256"
        }
      ],
      "name": "getOwnerByCollectionId",
      "outputs": [
        {
          "internalType": "address",
          "name": "",
          "type": "address"
        }
      ],
      "stateMutability": "view",
      "type": "function"
    },
    {
      "inputs": [
        {
          "internalType": "uint256",
          "name": "_id",
          "type": "uint256"
        }
      ],
      "name": "getPrice",
      "outputs": [
        {
          "internalType": "uint256",
          "name": "",
          "type": "uint256"
        }
      ],
      "stateMutability": "view",
      "type": "function"
    },
    {
      "inputs": [
        {
          "internalType": "uint256",
          "name": "_indexOfPromo",
          "type": "uint256"
        },
        {
          "internalType": "address",
          "name": "_user",
          "type": "address"
        }
      ],
      "name": "getPromo",
      "outputs": [
        {
          "internalType": "bytes8",
          "name": "",
          "type": "bytes8"
        }
      ],
      "stateMutability": "view",
      "type": "function"
    },
    {
      "inputs": [
        {
          "internalType": "uint256",
          "name": "_id",
          "type": "uint256"
        }
      ],
      "name": "getQuantity",
      "outputs": [
        {
          "internalType": "uint256",
          "name": "",
          "type": "uint256"
        }
      ],
      "stateMutability": "view",
      "type": "function"
    },
    {
      "inputs": [],
      "name": "idCounter",
      "outputs": [
        {
          "internalType": "uint256",
          "name": "",
          "type": "uint256"
        }
      ],
      "stateMutability": "view",
      "type": "function"
    },
    {
      "inputs": [],
      "name": "mainContract",
      "outputs": [
        {
          "internalType": "address",
          "name": "",
          "type": "address"
        }
      ],
      "stateMutability": "view",
      "type": "function"
    },
    {
      "inputs": [],
      "name": "owner",
      "outputs": [
        {
          "internalType": "address",
          "name": "",
          "type": "address"
        }
      ],
      "stateMutability": "view",
      "type": "function"
    },
    {
      "inputs": [
        {
          "internalType": "uint256",
          "name": "_id",
          "type": "uint256"
        },
        {
          "internalType": "bytes8",
          "name": "_code",
          "type": "bytes8"
        }
      ],
      "name": "redeemCode",
      "outputs": [],
      "stateMutability": "payable",
      "type": "function"
    },
    {
      "inputs": [],
      "name": "renounceOwnership",
      "outputs": [],
      "stateMutability": "nonpayable",
      "type": "function"
    },
    {
      "inputs": [
        {
          "internalType": "address",
          "name": "_mainContract",
          "type": "address"
        }
      ],
      "name": "setMainContract",
      "outputs": [],
      "stateMutability": "nonpayable",
      "type": "function"
    },
    {
      "inputs": [
        {
          "internalType": "address",
          "name": "newOwner",
          "type": "address"
        }
      ],
      "name": "transferOwnership",
      "outputs": [],
      "stateMutability": "nonpayable",
      "type": "function"
    }
  ],
  "bytecode": "0x60806040526001805534801561001457600080fd5b506040516163813803806163818339818101604052810190610036919061024c565b80600073ffffffffffffffffffffffffffffffffffffffff168173ffffffffffffffffffffffffffffffffffffffff16036100a95760006040517f1e4fbdf70000000000000000000000000000000000000000000000000000000081526004016100a09190610288565b60405180910390fd5b6100b88161012560201b60201c565b50600073ffffffffffffffffffffffffffffffffffffffff168173ffffffffffffffffffffffffffffffffffffffff160361011f576040517f41adc2bc00000000000000000000000000000000000000000000000000000000815260040160405180910390fd5b506102a3565b60008060009054906101000a900473ffffffffffffffffffffffffffffffffffffffff169050816000806101000a81548173ffffffffffffffffffffffffffffffffffffffff021916908373ffffffffffffffffffffffffffffffffffffffff1602179055508173ffffffffffffffffffffffffffffffffffffffff168173ffffffffffffffffffffffffffffffffffffffff167f8be0079c531659141344cd1fd0a4f28419497f9722a3daafe3b4186f6b6457e060405160405180910390a35050565b600080fd5b600073ffffffffffffffffffffffffffffffffffffffff82169050919050565b6000610219826101ee565b9050919050565b6102298161020e565b811461023457600080fd5b50565b60008151905061024681610220565b92915050565b600060208284031215610262576102616101e9565b5b600061027084828501610237565b91505092915050565b6102828161020e565b82525050565b600060208201905061029d6000830184610279565b92915050565b6160cf806102b26000396000f3fe60806040526004361061011f5760003560e01c8063b0ff4603116100a0578063eb08ab2811610064578063eb08ab28146103e2578063f0df84d41461040d578063f2fde38b1461044a578063fa60e30114610473578063fdbda0ec1461048f5761011f565b8063b0ff4603146102e4578063b3de019c14610321578063bb93d3ee1461033d578063d270e7ab1461037a578063e7572230146103a55761011f565b80637ad3e1cf116100e75780637ad3e1cf1461021b578063883dadb3146102375780638d80c922146102535780638da5cb5b14610290578063a06e8b05146102bb5761011f565b806338e129ce146101245780633ded33bc146101615780635ebd9ded1461018a5780637138ebe2146101c7578063715018a614610204575b600080fd5b34801561013057600080fd5b5061014b600480360381019061014691906126d5565b6104d3565b6040516101589190612878565b60405180910390f35b34801561016d57600080fd5b50610188600480360381019061018391906126d5565b6108a7565b005b34801561019657600080fd5b506101b160048036038101906101ac91906128c6565b610962565b6040516101be9190612902565b60405180910390f35b3480156101d357600080fd5b506101ee60048036038101906101e991906128c6565b6109c1565b6040516101fb9190612938565b60405180910390f35b34801561021057600080fd5b50610219610a30565b005b610235600480360381019061023091906129b8565b610a44565b005b610251600480360381019061024c9190612a94565b610eba565b005b34801561025f57600080fd5b5061027a600480360381019061027591906128c6565b610fc6565b6040516102879190612ae3565b60405180910390f35b34801561029c57600080fd5b506102a5611045565b6040516102b29190612ae3565b60405180910390f35b3480156102c757600080fd5b506102e260048036038101906102dd9190612afe565b61106e565b005b3480156102f057600080fd5b5061030b600480360381019061030691906128c6565b611328565b6040516103189190612ae3565b60405180910390f35b61033b60048036038101906103369190612a94565b6113a7565b005b34801561034957600080fd5b50610364600480360381019061035f9190612b51565b6114b3565b6040516103719190612bcc565b60405180910390f35b34801561038657600080fd5b5061038f611685565b60405161039c9190612ae3565b60405180910390f35b3480156103b157600080fd5b506103cc60048036038101906103c791906128c6565b6116ab565b6040516103d99190612902565b60405180910390f35b3480156103ee57600080fd5b506103f761170a565b6040516104049190612902565b60405180910390f35b34801561041957600080fd5b50610434600480360381019061042f91906126d5565b611710565b6040516104419190612878565b60405180910390f35b34801561045657600080fd5b50610471600480360381019061046c91906126d5565b611ae4565b005b61048d60048036038101906104889190612c13565b611b6a565b005b34801561049b57600080fd5b506104b660048036038101906104b191906128c6565b611da9565b6040516104ca989796959493929190612c9d565b60405180910390f35b6104db6125ef565b600073ffffffffffffffffffffffffffffffffffffffff168273ffffffffffffffffffffffffffffffffffffffff1603610541576040517f41adc2bc00000000000000000000000000000000000000000000000000000000815260040160405180910390fd5b6000600190505b60015481101561086f576003600082815260200190815260200160002060020160009054906101000a900473ffffffffffffffffffffffffffffffffffffffff1673ffffffffffffffffffffffffffffffffffffffff168373ffffffffffffffffffffffffffffffffffffffff16036108625760036000828152602001908152602001600020604051806101000160405290816000820180546105ea90612d5f565b80601f016020809104026020016040519081016040528092919081815260200182805461061690612d5f565b80156106635780601f1061063857610100808354040283529160200191610663565b820191906000526020600020905b81548152906001019060200180831161064657829003601f168201915b5050505050815260200160018201805461067c90612d5f565b80601f01602080910402602001604051908101604052809291908181526020018280546106a890612d5f565b80156106f55780601f106106ca576101008083540402835291602001916106f5565b820191906000526020600020905b8154815290600101906020018083116106d857829003601f168201915b505050505081526020016002820160009054906101000a900473ffffffffffffffffffffffffffffffffffffffff1673ffffffffffffffffffffffffffffffffffffffff1673ffffffffffffffffffffffffffffffffffffffff16815260200160038201805461076490612d5f565b80601f016020809104026020016040519081016040528092919081815260200182805461079090612d5f565b80156107dd5780601f106107b2576101008083540402835291602001916107dd565b820191906000526020600020905b8154815290600101906020018083116107c057829003601f168201915b5050505050815260200160048201548152602001600582015481526020016006820160009054906101000a900473ffffffffffffffffffffffffffffffffffffffff1673ffffffffffffffffffffffffffffffffffffffff1673ffffffffffffffffffffffffffffffffffffffff1681526020016007820154815250509150506108a2565b8080600101915050610548565b506040517f2392c22600000000000000000000000000000000000000000000000000000000815260040160405180910390fd5b919050565b6108af611fc9565b600073ffffffffffffffffffffffffffffffffffffffff168173ffffffffffffffffffffffffffffffffffffffff160361091e576040517f08c379a000000000000000000000000000000000000000000000000000000000815260040161091590612e02565b60405180910390fd5b80600260006101000a81548173ffffffffffffffffffffffffffffffffffffffff021916908373ffffffffffffffffffffffffffffffffffffffff16021790555050565b600061096d826109c1565b6109a3576040517f2392c22600000000000000000000000000000000000000000000000000000000815260040160405180910390fd5b60036000838152602001908152602001600020600501549050919050565b60008073ffffffffffffffffffffffffffffffffffffffff166003600084815260200190815260200160002060060160009054906101000a900473ffffffffffffffffffffffffffffffffffffffff1673ffffffffffffffffffffffffffffffffffffffff1614159050919050565b610a38611fc9565b610a426000612050565b565b600088889050118015610a5a5750604088889050105b610a90576040517f8da6b77a00000000000000000000000000000000000000000000000000000000815260040160405180910390fd5b600086869050118015610aa65750600886869050105b610adc576040517f2fc47aa300000000000000000000000000000000000000000000000000000000815260040160405180910390fd5b60008484905011610b19576040517fe314df8e00000000000000000000000000000000000000000000000000000000815260040160405180910390fd5b60008211610b53576040517fcdff314900000000000000000000000000000000000000000000000000000000815260040160405180910390fd5b600088888888888833610b64611045565b30604051610b7190612660565b610b8399989796959493929190612e5e565b604051809103906000f080158015610b9f573d6000803e3d6000fd5b5090506000819050600073ffffffffffffffffffffffffffffffffffffffff168173ffffffffffffffffffffffffffffffffffffffff1603610c0d576040517fea779b4900000000000000000000000000000000000000000000000000000000815260040160405180910390fd5b60006040518061010001604052808c8c8080601f016020809104026020016040519081016040528093929190818152602001838380828437600081840152601f19601f8201169050808301925050505050505081526020018a8a8080601f016020809104026020016040519081016040528093929190818152602001838380828437600081840152601f19601f8201169050808301925050505050505081526020013373ffffffffffffffffffffffffffffffffffffffff16815260200188888080601f016020809104026020016040519081016040528093929190818152602001838380828437600081840152601f19601f8201169050808301925050505050505081526020018681526020018581526020018373ffffffffffffffffffffffffffffffffffffffff1681526020016001548152509050806003600060015481526020019081526020016000206000820151816000019081610d7091906130b5565b506020820151816001019081610d8691906130b5565b5060408201518160020160006101000a81548173ffffffffffffffffffffffffffffffffffffffff021916908373ffffffffffffffffffffffffffffffffffffffff1602179055506060820151816003019081610de391906130b5565b506080820151816004015560a0820151816005015560c08201518160060160006101000a81548173ffffffffffffffffffffffffffffffffffffffff021916908373ffffffffffffffffffffffffffffffffffffffff16021790555060e082015181600701559050507f6ff6349789149551186954ecfceb32fa6255ec8df17a536f95495687b930d62e823389898f8f8b6001548c604051610e8d99989796959493929190613187565b60405180910390a160016000815480929190610ea890613237565b91905055505050505050505050505050565b803373ffffffffffffffffffffffffffffffffffffffff166003600083815260200190815260200160002060020160009054906101000a900473ffffffffffffffffffffffffffffffffffffffff1673ffffffffffffffffffffffffffffffffffffffff161480610f785750600260009054906101000a900473ffffffffffffffffffffffffffffffffffffffff1673ffffffffffffffffffffffffffffffffffffffff163373ffffffffffffffffffffffffffffffffffffffff16145b610fb7576040517f08c379a0000000000000000000000000000000000000000000000000000000008152600401610fae906132f1565b60405180910390fd5b610fc18284612114565b505050565b6000610fd1826109c1565b611007576040517f2392c22600000000000000000000000000000000000000000000000000000000815260040160405180910390fd5b6003600083815260200190815260200160002060060160009054906101000a900473ffffffffffffffffffffffffffffffffffffffff169050919050565b60008060009054906101000a900473ffffffffffffffffffffffffffffffffffffffff16905090565b600073ffffffffffffffffffffffffffffffffffffffff168173ffffffffffffffffffffffffffffffffffffffff16036110d4576040517f41adc2bc00000000000000000000000000000000000000000000000000000000815260040160405180910390fd5b600260009054906101000a900473ffffffffffffffffffffffffffffffffffffffff1673ffffffffffffffffffffffffffffffffffffffff163373ffffffffffffffffffffffffffffffffffffffff1614611164576040517f08c379a000000000000000000000000000000000000000000000000000000000815260040161115b9061335d565b60405180910390fd5b6000831161119e576040517f318e00aa00000000000000000000000000000000000000000000000000000000815260040160405180910390fd5b6000600560003373ffffffffffffffffffffffffffffffffffffffff1673ffffffffffffffffffffffffffffffffffffffff16815260200190815260200160002054905060005b8481101561132157600081436111fb919061337d565b404284338886324460405160200161121a9897969594939291906133ca565b604051602081830303815290604052805190602001209050600460008573ffffffffffffffffffffffffffffffffffffffff1673ffffffffffffffffffffffffffffffffffffffff1681526020019081526020016000208190806001815401808255809150506001900390600052602060002090600491828204019190066008029091909190916101000a81548167ffffffffffffffff021916908360c01c0217905550600560003373ffffffffffffffffffffffffffffffffffffffff1673ffffffffffffffffffffffffffffffffffffffff168152602001908152602001600020600081548092919061130e90613237565b91905055505080806001019150506111e5565b5050505050565b6000611333826109c1565b611369576040517f2392c22600000000000000000000000000000000000000000000000000000000815260040160405180910390fd5b6003600083815260200190815260200160002060020160009054906101000a900473ffffffffffffffffffffffffffffffffffffffff169050919050565b803373ffffffffffffffffffffffffffffffffffffffff166003600083815260200190815260200160002060020160009054906101000a900473ffffffffffffffffffffffffffffffffffffffff1673ffffffffffffffffffffffffffffffffffffffff1614806114655750600260009054906101000a900473ffffffffffffffffffffffffffffffffffffffff1673ffffffffffffffffffffffffffffffffffffffff163373ffffffffffffffffffffffffffffffffffffffff16145b6114a4576040517f08c379a000000000000000000000000000000000000000000000000000000000815260040161149b906132f1565b60405180910390fd5b6114ae8284612133565b505050565b60006114bd611fc9565b600073ffffffffffffffffffffffffffffffffffffffff168273ffffffffffffffffffffffffffffffffffffffff1603611523576040517f41adc2bc00000000000000000000000000000000000000000000000000000000815260040160405180910390fd5b600060c01b77ffffffffffffffffffffffffffffffffffffffffffffffff1916600460008473ffffffffffffffffffffffffffffffffffffffff1673ffffffffffffffffffffffffffffffffffffffff168152602001908152602001600020848154811061159457611593613448565b5b90600052602060002090600491828204019190066008029054906101000a900460c01b77ffffffffffffffffffffffffffffffffffffffffffffffff191603611609576040517f7d635a8400000000000000000000000000000000000000000000000000000000815260040160405180910390fd5b600460008373ffffffffffffffffffffffffffffffffffffffff1673ffffffffffffffffffffffffffffffffffffffff168152602001908152602001600020838154811061165a57611659613448565b5b90600052602060002090600491828204019190066008029054906101000a900460c01b905092915050565b600260009054906101000a900473ffffffffffffffffffffffffffffffffffffffff1681565b60006116b6826109c1565b6116ec576040517f2392c22600000000000000000000000000000000000000000000000000000000815260040160405180910390fd5b60036000838152602001908152602001600020600401549050919050565b60015481565b6117186125ef565b600073ffffffffffffffffffffffffffffffffffffffff168273ffffffffffffffffffffffffffffffffffffffff160361177e576040517f41adc2bc00000000000000000000000000000000000000000000000000000000815260040160405180910390fd5b6000600190505b600154811015611aac576003600082815260200190815260200160002060060160009054906101000a900473ffffffffffffffffffffffffffffffffffffffff1673ffffffffffffffffffffffffffffffffffffffff168373ffffffffffffffffffffffffffffffffffffffff1603611a9f57600360008281526020019081526020016000206040518061010001604052908160008201805461182790612d5f565b80601f016020809104026020016040519081016040528092919081815260200182805461185390612d5f565b80156118a05780601f10611875576101008083540402835291602001916118a0565b820191906000526020600020905b81548152906001019060200180831161188357829003601f168201915b505050505081526020016001820180546118b990612d5f565b80601f01602080910402602001604051908101604052809291908181526020018280546118e590612d5f565b80156119325780601f1061190757610100808354040283529160200191611932565b820191906000526020600020905b81548152906001019060200180831161191557829003601f168201915b505050505081526020016002820160009054906101000a900473ffffffffffffffffffffffffffffffffffffffff1673ffffffffffffffffffffffffffffffffffffffff1673ffffffffffffffffffffffffffffffffffffffff1681526020016003820180546119a190612d5f565b80601f01602080910402602001604051908101604052809291908181526020018280546119cd90612d5f565b8015611a1a5780601f106119ef57610100808354040283529160200191611a1a565b820191906000526020600020905b8154815290600101906020018083116119fd57829003601f168201915b5050505050815260200160048201548152602001600582015481526020016006820160009054906101000a900473ffffffffffffffffffffffffffffffffffffffff1673ffffffffffffffffffffffffffffffffffffffff1673ffffffffffffffffffffffffffffffffffffffff168152602001600782015481525050915050611adf565b8080600101915050611785565b506040517f2392c22600000000000000000000000000000000000000000000000000000000815260040160405180910390fd5b919050565b611aec611fc9565b600073ffffffffffffffffffffffffffffffffffffffff168173ffffffffffffffffffffffffffffffffffffffff1603611b5e5760006040517f1e4fbdf7000000000000000000000000000000000000000000000000000000008152600401611b559190612ae3565b60405180910390fd5b611b6781612050565b50565b611b73826109c1565b611ba9576040517f2392c22600000000000000000000000000000000000000000000000000000000815260040160405180910390fd5b6000611bb483610fc6565b905060008190508073ffffffffffffffffffffffffffffffffffffffff1663d270e7ab6040518163ffffffff1660e01b8152600401602060405180830381865afa158015611c06573d6000803e3d6000fd5b505050506040513d601f19601f82011682018060405250810190611c2a919061348c565b73ffffffffffffffffffffffffffffffffffffffff163073ffffffffffffffffffffffffffffffffffffffff1614611c8e576040517f36a3382900000000000000000000000000000000000000000000000000000000815260040160405180910390fd5b60011515611c9b84612152565b151514611cd4576040517f4a9974d900000000000000000000000000000000000000000000000000000000815260040160405180910390fd5b8073ffffffffffffffffffffffffffffffffffffffff16636a627842336040518263ffffffff1660e01b8152600401611d0d9190612ae3565b600060405180830381600087803b158015611d2757600080fd5b505af1158015611d3b573d6000803e3d6000fd5b50505050611d493384612276565b8173ffffffffffffffffffffffffffffffffffffffff163373ffffffffffffffffffffffffffffffffffffffff167fd93be5b700ed0e5c8bbb80fde473a833ab62e4fb82087b61c3c44b73e9e51d2d60405160405180910390a350505050565b6003602052806000526040600020600091509050806000018054611dcc90612d5f565b80601f0160208091040260200160405190810160405280929190818152602001828054611df890612d5f565b8015611e455780601f10611e1a57610100808354040283529160200191611e45565b820191906000526020600020905b815481529060010190602001808311611e2857829003601f168201915b505050505090806001018054611e5a90612d5f565b80601f0160208091040260200160405190810160405280929190818152602001828054611e8690612d5f565b8015611ed35780601f10611ea857610100808354040283529160200191611ed3565b820191906000526020600020905b815481529060010190602001808311611eb657829003601f168201915b5050505050908060020160009054906101000a900473ffffffffffffffffffffffffffffffffffffffff1690806003018054611f0e90612d5f565b80601f0160208091040260200160405190810160405280929190818152602001828054611f3a90612d5f565b8015611f875780601f10611f5c57610100808354040283529160200191611f87565b820191906000526020600020905b815481529060010190602001808311611f6a57829003601f168201915b5050505050908060040154908060050154908060060160009054906101000a900473ffffffffffffffffffffffffffffffffffffffff16908060070154905088565b611fd16124f4565b73ffffffffffffffffffffffffffffffffffffffff16611fef611045565b73ffffffffffffffffffffffffffffffffffffffff161461204e576120126124f4565b6040517f118cdaa70000000000000000000000000000000000000000000000000000000081526004016120459190612ae3565b60405180910390fd5b565b60008060009054906101000a900473ffffffffffffffffffffffffffffffffffffffff169050816000806101000a81548173ffffffffffffffffffffffffffffffffffffffff021916908373ffffffffffffffffffffffffffffffffffffffff1602179055508173ffffffffffffffffffffffffffffffffffffffff168173ffffffffffffffffffffffffffffffffffffffff167f8be0079c531659141344cd1fd0a4f28419497f9722a3daafe3b4186f6b6457e060405160405180910390a35050565b8060036000848152602001908152602001600020600501819055505050565b8060036000848152602001908152602001600020600401819055505050565b600080600090505b600460003373ffffffffffffffffffffffffffffffffffffffff1673ffffffffffffffffffffffffffffffffffffffff1681526020019081526020016000208054905081101561226b578277ffffffffffffffffffffffffffffffffffffffffffffffff1916600460003373ffffffffffffffffffffffffffffffffffffffff1673ffffffffffffffffffffffffffffffffffffffff168152602001908152602001600020828154811061221157612210613448565b5b90600052602060002090600491828204019190066008029054906101000a900460c01b77ffffffffffffffffffffffffffffffffffffffffffffffff19160361225e576001915050612271565b808060010191505061215a565b50600090505b919050565b600073ffffffffffffffffffffffffffffffffffffffff168273ffffffffffffffffffffffffffffffffffffffff16036122dc576040517f41adc2bc00000000000000000000000000000000000000000000000000000000815260040160405180910390fd5b6000806122e984846124fc565b9150915080612324576040517f76e1150800000000000000000000000000000000000000000000000000000000815260040160405180910390fd5b600460008573ffffffffffffffffffffffffffffffffffffffff1673ffffffffffffffffffffffffffffffffffffffff1681526020019081526020016000206001600460008773ffffffffffffffffffffffffffffffffffffffff1673ffffffffffffffffffffffffffffffffffffffff168152602001908152602001600020805490506123b2919061337d565b815481106123c3576123c2613448565b5b90600052602060002090600491828204019190066008029054906101000a900460c01b600460008673ffffffffffffffffffffffffffffffffffffffff1673ffffffffffffffffffffffffffffffffffffffff168152602001908152602001600020838154811061243757612436613448565b5b90600052602060002090600491828204019190066008026101000a81548167ffffffffffffffff021916908360c01c0217905550600460008573ffffffffffffffffffffffffffffffffffffffff1673ffffffffffffffffffffffffffffffffffffffff1681526020019081526020016000208054806124ba576124b96134b9565b5b60019003818190600052602060002090600491828204019190066008026101000a81549067ffffffffffffffff0219169055905550505050565b600033905090565b6000806000600460008673ffffffffffffffffffffffffffffffffffffffff1673ffffffffffffffffffffffffffffffffffffffff168152602001908152602001600020905060005b81805490508110156125de578477ffffffffffffffffffffffffffffffffffffffffffffffff19168282815481106125805761257f613448565b5b90600052602060002090600491828204019190066008029054906101000a900460c01b77ffffffffffffffffffffffffffffffffffffffffffffffff1916036125d1578060019350935050506125e8565b8080600101915050612545565b5060008092509250505b9250929050565b6040518061010001604052806060815260200160608152602001600073ffffffffffffffffffffffffffffffffffffffff168152602001606081526020016000815260200160008152602001600073ffffffffffffffffffffffffffffffffffffffff168152602001600081525090565b612bb1806134e983390190565b600080fd5b600080fd5b600073ffffffffffffffffffffffffffffffffffffffff82169050919050565b60006126a282612677565b9050919050565b6126b281612697565b81146126bd57600080fd5b50565b6000813590506126cf816126a9565b92915050565b6000602082840312156126eb576126ea61266d565b5b60006126f9848285016126c0565b91505092915050565b600081519050919050565b600082825260208201905092915050565b60005b8381101561273c578082015181840152602081019050612721565b60008484015250505050565b6000601f19601f8301169050919050565b600061276482612702565b61276e818561270d565b935061277e81856020860161271e565b61278781612748565b840191505092915050565b61279b81612697565b82525050565b6000819050919050565b6127b4816127a1565b82525050565b60006101008301600083015184820360008601526127d88282612759565b915050602083015184820360208601526127f28282612759565b91505060408301516128076040860182612792565b506060830151848203606086015261281f8282612759565b915050608083015161283460808601826127ab565b5060a083015161284760a08601826127ab565b5060c083015161285a60c0860182612792565b5060e083015161286d60e08601826127ab565b508091505092915050565b6000602082019050818103600083015261289281846127ba565b905092915050565b6128a3816127a1565b81146128ae57600080fd5b50565b6000813590506128c08161289a565b92915050565b6000602082840312156128dc576128db61266d565b5b60006128ea848285016128b1565b91505092915050565b6128fc816127a1565b82525050565b600060208201905061291760008301846128f3565b92915050565b60008115159050919050565b6129328161291d565b82525050565b600060208201905061294d6000830184612929565b92915050565b600080fd5b600080fd5b600080fd5b60008083601f84011261297857612977612953565b5b8235905067ffffffffffffffff81111561299557612994612958565b5b6020830191508360018202830111156129b1576129b061295d565b5b9250929050565b60008060008060008060008060a0898b0312156129d8576129d761266d565b5b600089013567ffffffffffffffff8111156129f6576129f5612672565b5b612a028b828c01612962565b9850985050602089013567ffffffffffffffff811115612a2557612a24612672565b5b612a318b828c01612962565b9650965050604089013567ffffffffffffffff811115612a5457612a53612672565b5b612a608b828c01612962565b94509450506060612a738b828c016128b1565b9250506080612a848b828c016128b1565b9150509295985092959890939650565b60008060408385031215612aab57612aaa61266d565b5b6000612ab9858286016128b1565b9250506020612aca858286016128b1565b9150509250929050565b612add81612697565b82525050565b6000602082019050612af86000830184612ad4565b92915050565b600080600060608486031215612b1757612b1661266d565b5b6000612b25868287016128b1565b9350506020612b36868287016128b1565b9250506040612b47868287016126c0565b9150509250925092565b60008060408385031215612b6857612b6761266d565b5b6000612b76858286016128b1565b9250506020612b87858286016126c0565b9150509250929050565b60007fffffffffffffffff00000000000000000000000000000000000000000000000082169050919050565b612bc681612b91565b82525050565b6000602082019050612be16000830184612bbd565b92915050565b612bf081612b91565b8114612bfb57600080fd5b50565b600081359050612c0d81612be7565b92915050565b60008060408385031215612c2a57612c2961266d565b5b6000612c38858286016128b1565b9250506020612c4985828601612bfe565b9150509250929050565b600082825260208201905092915050565b6000612c6f82612702565b612c798185612c53565b9350612c8981856020860161271e565b612c9281612748565b840191505092915050565b6000610100820190508181036000830152612cb8818b612c64565b90508181036020830152612ccc818a612c64565b9050612cdb6040830189612ad4565b8181036060830152612ced8188612c64565b9050612cfc60808301876128f3565b612d0960a08301866128f3565b612d1660c0830185612ad4565b612d2360e08301846128f3565b9998505050505050505050565b7f4e487b7100000000000000000000000000000000000000000000000000000000600052602260045260246000fd5b60006002820490506001821680612d7757607f821691505b602082108103612d8a57612d89612d30565b5b50919050565b7f4d61696e20636f6e747261637420616464726573732063616e6e6f742062652060008201527f7a65726f00000000000000000000000000000000000000000000000000000000602082015250565b6000612dec602483612c53565b9150612df782612d90565b604082019050919050565b60006020820190508181036000830152612e1b81612ddf565b9050919050565b82818337600083830152505050565b6000612e3d8385612c53565b9350612e4a838584612e22565b612e5383612748565b840190509392505050565b600060c0820190508181036000830152612e79818b8d612e31565b90508181036020830152612e8e81898b612e31565b90508181036040830152612ea3818789612e31565b9050612eb26060830186612ad4565b612ebf6080830185612ad4565b612ecc60a0830184612ad4565b9a9950505050505050505050565b7f4e487b7100000000000000000000000000000000000000000000000000000000600052604160045260246000fd5b60008190508160005260206000209050919050565b60006020601f8301049050919050565b600082821b905092915050565b600060088302612f6b7fffffffffffffffffffffffffffffffffffffffffffffffffffffffffffffffff82612f2e565b612f758683612f2e565b95508019841693508086168417925050509392505050565b6000819050919050565b6000612fb2612fad612fa8846127a1565b612f8d565b6127a1565b9050919050565b6000819050919050565b612fcc83612f97565b612fe0612fd882612fb9565b848454612f3b565b825550505050565b600090565b612ff5612fe8565b613000818484612fc3565b505050565b5b8181101561302457613019600082612fed565b600181019050613006565b5050565b601f8211156130695761303a81612f09565b61304384612f1e565b81016020851015613052578190505b61306661305e85612f1e565b830182613005565b50505b505050565b600082821c905092915050565b600061308c6000198460080261306e565b1980831691505092915050565b60006130a5838361307b565b9150826002028217905092915050565b6130be82612702565b67ffffffffffffffff8111156130d7576130d6612eda565b5b6130e18254612d5f565b6130ec828285613028565b600060209050601f83116001811461311f576000841561310d578287015190505b6131178582613099565b86555061317f565b601f19841661312d86612f09565b60005b8281101561315557848901518255600182019150602085019450602081019050613130565b86831015613172578489015161316e601f89168261307b565b8355505b6001600288020188555050505b505050505050565b600060e08201905061319c600083018c612ad4565b6131a9602083018b612ad4565b81810360408301526131bc81898b612e31565b905081810360608301526131d1818789612e31565b90506131e060808301866128f3565b6131ed60a08301856128f3565b6131fa60c08301846128f3565b9a9950505050505050505050565b7f4e487b7100000000000000000000000000000000000000000000000000000000600052601160045260246000fd5b6000613242826127a1565b91507fffffffffffffffffffffffffffffffffffffffffffffffffffffffffffffffff820361327457613273613208565b5b600182019050919050565b7f596f7520617265206e6f74207468652063726561746f72206f6620746869732060008201527f636f6c6c656374696f6e00000000000000000000000000000000000000000000602082015250565b60006132db602a83612c53565b91506132e68261327f565b604082019050919050565b6000602082019050818103600083015261330a816132ce565b9050919050565b7f6f6e6c794d61696e436f6e747261637421000000000000000000000000000000600082015250565b6000613347601183612c53565b915061335282613311565b602082019050919050565b600060208201905081810360008301526133768161333a565b9050919050565b6000613388826127a1565b9150613393836127a1565b92508282039050818111156133ab576133aa613208565b5b92915050565b6000819050919050565b6133c4816133b1565b82525050565b6000610100820190506133e0600083018b6133bb565b6133ed602083018a6128f3565b6133fa60408301896128f3565b6134076060830188612ad4565b61341460808301876128f3565b61342160a08301866128f3565b61342e60c0830185612ad4565b61343b60e08301846128f3565b9998505050505050505050565b7f4e487b7100000000000000000000000000000000000000000000000000000000600052603260045260246000fd5b600081519050613486816126a9565b92915050565b6000602082840312156134a2576134a161266d565b5b60006134b084828501613477565b91505092915050565b7f4e487b7100000000000000000000000000000000000000000000000000000000600052603160045260246000fdfe608060405234801561001057600080fd5b50604051612bb1380380612bb183398181016040528101906100329190610454565b858581600090816100439190610756565b5080600190816100539190610756565b505050600073ffffffffffffffffffffffffffffffffffffffff168373ffffffffffffffffffffffffffffffffffffffff16036100c5576040517f08c379a00000000000000000000000000000000000000000000000000000000081526004016100bc90610885565b60405180910390fd5b600073ffffffffffffffffffffffffffffffffffffffff168273ffffffffffffffffffffffffffffffffffffffff1603610134576040517f08c379a000000000000000000000000000000000000000000000000000000000815260040161012b90610917565b60405180910390fd5b600073ffffffffffffffffffffffffffffffffffffffff168173ffffffffffffffffffffffffffffffffffffffff16036101a3576040517f08c379a000000000000000000000000000000000000000000000000000000000815260040161019a906109a9565b60405180910390fd5b82600960006101000a81548173ffffffffffffffffffffffffffffffffffffffff021916908373ffffffffffffffffffffffffffffffffffffffff16021790555081600a60006101000a81548173ffffffffffffffffffffffffffffffffffffffff021916908373ffffffffffffffffffffffffffffffffffffffff16021790555083600790816102349190610756565b5080600860006101000a81548173ffffffffffffffffffffffffffffffffffffffff021916908373ffffffffffffffffffffffffffffffffffffffff1602179055505050505050506109c9565b6000604051905090565b600080fd5b600080fd5b600080fd5b600080fd5b6000601f19601f8301169050919050565b7f4e487b7100000000000000000000000000000000000000000000000000000000600052604160045260246000fd5b6102e88261029f565b810181811067ffffffffffffffff82111715610307576103066102b0565b5b80604052505050565b600061031a610281565b905061032682826102df565b919050565b600067ffffffffffffffff821115610346576103456102b0565b5b61034f8261029f565b9050602081019050919050565b60005b8381101561037a57808201518184015260208101905061035f565b60008484015250505050565b60006103996103948461032b565b610310565b9050828152602081018484840111156103b5576103b461029a565b5b6103c084828561035c565b509392505050565b600082601f8301126103dd576103dc610295565b5b81516103ed848260208601610386565b91505092915050565b600073ffffffffffffffffffffffffffffffffffffffff82169050919050565b6000610421826103f6565b9050919050565b61043181610416565b811461043c57600080fd5b50565b60008151905061044e81610428565b92915050565b60008060008060008060c087890312156104715761047061028b565b5b600087015167ffffffffffffffff81111561048f5761048e610290565b5b61049b89828a016103c8565b965050602087015167ffffffffffffffff8111156104bc576104bb610290565b5b6104c889828a016103c8565b955050604087015167ffffffffffffffff8111156104e9576104e8610290565b5b6104f589828a016103c8565b945050606061050689828a0161043f565b935050608061051789828a0161043f565b92505060a061052889828a0161043f565b9150509295509295509295565b600081519050919050565b7f4e487b7100000000000000000000000000000000000000000000000000000000600052602260045260246000fd5b6000600282049050600182168061058757607f821691505b60208210810361059a57610599610540565b5b50919050565b60008190508160005260206000209050919050565b60006020601f8301049050919050565b600082821b905092915050565b6000600883026106027fffffffffffffffffffffffffffffffffffffffffffffffffffffffffffffffff826105c5565b61060c86836105c5565b95508019841693508086168417925050509392505050565b6000819050919050565b6000819050919050565b600061065361064e61064984610624565b61062e565b610624565b9050919050565b6000819050919050565b61066d83610638565b6106816106798261065a565b8484546105d2565b825550505050565b600090565b610696610689565b6106a1818484610664565b505050565b5b818110156106c5576106ba60008261068e565b6001810190506106a7565b5050565b601f82111561070a576106db816105a0565b6106e4846105b5565b810160208510156106f3578190505b6107076106ff856105b5565b8301826106a6565b50505b505050565b600082821c905092915050565b600061072d6000198460080261070f565b1980831691505092915050565b6000610746838361071c565b9150826002028217905092915050565b61075f82610535565b67ffffffffffffffff811115610778576107776102b0565b5b610782825461056f565b61078d8282856106c9565b600060209050601f8311600181146107c057600084156107ae578287015190505b6107b8858261073a565b865550610820565b601f1984166107ce866105a0565b60005b828110156107f6578489015182556001820191506020850194506020810190506107d1565b86831015610813578489015161080f601f89168261071c565b8355505b6001600288020188555050505b505050505050565b600082825260208201905092915050565b7f43726561746f722063616e6e6f74206265207a65726f20616464726573730000600082015250565b600061086f601e83610828565b915061087a82610839565b602082019050919050565b6000602082019050818103600083015261089e81610862565b9050919050565b7f4d61726b6574706c6163652063726561746f722063616e6e6f74206265207a6560008201527f726f206164647265737300000000000000000000000000000000000000000000602082015250565b6000610901602a83610828565b915061090c826108a5565b604082019050919050565b60006020820190508181036000830152610930816108f4565b9050919050565b7f4d61696e20636f6e74726163742063616e6e6f74206265207a65726f2061646460008201527f7265737300000000000000000000000000000000000000000000000000000000602082015250565b6000610993602483610828565b915061099e82610937565b604082019050919050565b600060208201905081810360008301526109c281610986565b9050919050565b6121d9806109d86000396000f3fe608060405234801561001057600080fd5b50600436106100f55760003560e01c80636a62784211610097578063b88d4fde11610066578063b88d4fde14610282578063c87b56dd1461029e578063d270e7ab146102ce578063e985e9c5146102ec576100f5565b80636a627842146101fc57806370a082311461021857806395d89b4114610248578063a22cb46514610266576100f5565b8063095ea7b3116100d3578063095ea7b31461017857806323b872dd1461019457806342842e0e146101b05780636352211e146101cc576100f5565b806301ffc9a7146100fa57806306fdde031461012a578063081812fc14610148575b600080fd5b610114600480360381019061010f91906117f0565b61031c565b6040516101219190611838565b60405180910390f35b6101326103fe565b60405161013f91906118e3565b60405180910390f35b610162600480360381019061015d919061193b565b610490565b60405161016f91906119a9565b60405180910390f35b610192600480360381019061018d91906119f0565b6104ac565b005b6101ae60048036038101906101a99190611a30565b6104c2565b005b6101ca60048036038101906101c59190611a30565b6105c4565b005b6101e660048036038101906101e1919061193b565b6105e4565b6040516101f391906119a9565b60405180910390f35b61021660048036038101906102119190611a83565b6105f6565b005b610232600480360381019061022d9190611a83565b6106b3565b60405161023f9190611abf565b60405180910390f35b61025061076d565b60405161025d91906118e3565b60405180910390f35b610280600480360381019061027b9190611b06565b6107ff565b005b61029c60048036038101906102979190611c7b565b6108f5565b005b6102b860048036038101906102b3919061193b565b61091a565b6040516102c591906118e3565b60405180910390f35b6102d661094e565b6040516102e391906119a9565b60405180910390f35b61030660048036038101906103019190611cfe565b610974565b6040516103139190611838565b60405180910390f35b60007f80ac58cd000000000000000000000000000000000000000000000000000000007bffffffffffffffffffffffffffffffffffffffffffffffffffffffff1916827bffffffffffffffffffffffffffffffffffffffffffffffffffffffff191614806103e757507f5b5e139f000000000000000000000000000000000000000000000000000000007bffffffffffffffffffffffffffffffffffffffffffffffffffffffff1916827bffffffffffffffffffffffffffffffffffffffffffffffffffffffff1916145b806103f757506103f682610a08565b5b9050919050565b60606000805461040d90611d6d565b80601f016020809104026020016040519081016040528092919081815260200182805461043990611d6d565b80156104865780601f1061045b57610100808354040283529160200191610486565b820191906000526020600020905b81548152906001019060200180831161046957829003601f168201915b5050505050905090565b600061049b82610a72565b506104a582610afa565b9050919050565b6104be82826104b9610b37565b610b3f565b5050565b600073ffffffffffffffffffffffffffffffffffffffff168273ffffffffffffffffffffffffffffffffffffffff16036105345760006040517f64a0ae9200000000000000000000000000000000000000000000000000000000815260040161052b91906119a9565b60405180910390fd5b60006105488383610543610b37565b610b51565b90508373ffffffffffffffffffffffffffffffffffffffff168173ffffffffffffffffffffffffffffffffffffffff16146105be578382826040517f64283d7b0000000000000000000000000000000000000000000000000000000081526004016105b593929190611d9e565b60405180910390fd5b50505050565b6105df838383604051806020016040528060008152506108f5565b505050565b60006105ef82610a72565b9050919050565b600860009054906101000a900473ffffffffffffffffffffffffffffffffffffffff1673ffffffffffffffffffffffffffffffffffffffff163373ffffffffffffffffffffffffffffffffffffffff1614610686576040517f08c379a000000000000000000000000000000000000000000000000000000000815260040161067d90611e47565b60405180910390fd5b600060065490506106978282610d6b565b600660008154809291906106aa90611e96565b91905055505050565b60008073ffffffffffffffffffffffffffffffffffffffff168273ffffffffffffffffffffffffffffffffffffffff16036107265760006040517f89c62b6400000000000000000000000000000000000000000000000000000000815260040161071d91906119a9565b60405180910390fd5b600360008373ffffffffffffffffffffffffffffffffffffffff1673ffffffffffffffffffffffffffffffffffffffff168152602001908152602001600020549050919050565b60606001805461077c90611d6d565b80601f01602080910402602001604051908101604052809291908181526020018280546107a890611d6d565b80156107f55780601f106107ca576101008083540402835291602001916107f5565b820191906000526020600020905b8154815290600101906020018083116107d857829003601f168201915b5050505050905090565b600a60009054906101000a900473ffffffffffffffffffffffffffffffffffffffff1673ffffffffffffffffffffffffffffffffffffffff163373ffffffffffffffffffffffffffffffffffffffff1614806108a85750600960009054906101000a900473ffffffffffffffffffffffffffffffffffffffff1673ffffffffffffffffffffffffffffffffffffffff163373ffffffffffffffffffffffffffffffffffffffff16145b6108e7576040517f08c379a00000000000000000000000000000000000000000000000000000000081526004016108de90611f50565b60405180910390fd5b6108f18282610d89565b5050565b6109008484846104c2565b61091461090b610b37565b85858585610d9f565b50505050565b6060600761092783610f50565b604051602001610938929190612044565b6040516020818303038152906040529050919050565b600860009054906101000a900473ffffffffffffffffffffffffffffffffffffffff1681565b6000600560008473ffffffffffffffffffffffffffffffffffffffff1673ffffffffffffffffffffffffffffffffffffffff16815260200190815260200160002060008373ffffffffffffffffffffffffffffffffffffffff1673ffffffffffffffffffffffffffffffffffffffff16815260200190815260200160002060009054906101000a900460ff16905092915050565b60007f01ffc9a7000000000000000000000000000000000000000000000000000000007bffffffffffffffffffffffffffffffffffffffffffffffffffffffff1916827bffffffffffffffffffffffffffffffffffffffffffffffffffffffff1916149050919050565b600080610a7e8361101e565b9050600073ffffffffffffffffffffffffffffffffffffffff168173ffffffffffffffffffffffffffffffffffffffff1603610af157826040517f7e273289000000000000000000000000000000000000000000000000000000008152600401610ae89190611abf565b60405180910390fd5b80915050919050565b60006004600083815260200190815260200160002060009054906101000a900473ffffffffffffffffffffffffffffffffffffffff169050919050565b600033905090565b610b4c838383600161105b565b505050565b600080610b5d8461101e565b9050600073ffffffffffffffffffffffffffffffffffffffff168373ffffffffffffffffffffffffffffffffffffffff1614610b9f57610b9e818486611220565b5b600073ffffffffffffffffffffffffffffffffffffffff168173ffffffffffffffffffffffffffffffffffffffff1614610c3057610be160008560008061105b565b6001600360008373ffffffffffffffffffffffffffffffffffffffff1673ffffffffffffffffffffffffffffffffffffffff168152602001908152602001600020600082825403925050819055505b600073ffffffffffffffffffffffffffffffffffffffff168573ffffffffffffffffffffffffffffffffffffffff1614610cb3576001600360008773ffffffffffffffffffffffffffffffffffffffff1673ffffffffffffffffffffffffffffffffffffffff168152602001908152602001600020600082825401925050819055505b846002600086815260200190815260200160002060006101000a81548173ffffffffffffffffffffffffffffffffffffffff021916908373ffffffffffffffffffffffffffffffffffffffff160217905550838573ffffffffffffffffffffffffffffffffffffffff168273ffffffffffffffffffffffffffffffffffffffff167fddf252ad1be2c89b69c2b068fc378daa952ba7f163c4a11628f55a4df523b3ef60405160405180910390a4809150509392505050565b610d858282604051806020016040528060008152506112e4565b5050565b610d9b610d94610b37565b8383611308565b5050565b60008373ffffffffffffffffffffffffffffffffffffffff163b1115610f49578273ffffffffffffffffffffffffffffffffffffffff1663150b7a02868685856040518563ffffffff1660e01b8152600401610dfe94939291906120bd565b6020604051808303816000875af1925050508015610e3a57506040513d601f19601f82011682018060405250810190610e37919061211e565b60015b610ebe573d8060008114610e6a576040519150601f19603f3d011682016040523d82523d6000602084013e610e6f565b606091505b506000815103610eb657836040517f64a0ae92000000000000000000000000000000000000000000000000000000008152600401610ead91906119a9565b60405180910390fd5b805181602001fd5b63150b7a0260e01b7bffffffffffffffffffffffffffffffffffffffffffffffffffffffff1916817bffffffffffffffffffffffffffffffffffffffffffffffffffffffff191614610f4757836040517f64a0ae92000000000000000000000000000000000000000000000000000000008152600401610f3e91906119a9565b60405180910390fd5b505b5050505050565b606060006001610f5f84611477565b01905060008167ffffffffffffffff811115610f7e57610f7d611b50565b5b6040519080825280601f01601f191660200182016040528015610fb05781602001600182028036833780820191505090505b509050600082602001820190505b600115611013578080600190039150507f3031323334353637383961626364656600000000000000000000000000000000600a86061a8153600a85816110075761100661214b565b5b04945060008503610fbe575b819350505050919050565b60006002600083815260200190815260200160002060009054906101000a900473ffffffffffffffffffffffffffffffffffffffff169050919050565b80806110945750600073ffffffffffffffffffffffffffffffffffffffff168273ffffffffffffffffffffffffffffffffffffffff1614155b156111c85760006110a484610a72565b9050600073ffffffffffffffffffffffffffffffffffffffff168373ffffffffffffffffffffffffffffffffffffffff161415801561110f57508273ffffffffffffffffffffffffffffffffffffffff168173ffffffffffffffffffffffffffffffffffffffff1614155b801561112257506111208184610974565b155b1561116457826040517fa9fbf51f00000000000000000000000000000000000000000000000000000000815260040161115b91906119a9565b60405180910390fd5b81156111c657838573ffffffffffffffffffffffffffffffffffffffff168273ffffffffffffffffffffffffffffffffffffffff167f8c5be1e5ebec7d5bd14f71427d1e84f3dd0314c0f7b2291e5b200ac8c7c3b92560405160405180910390a45b505b836004600085815260200190815260200160002060006101000a81548173ffffffffffffffffffffffffffffffffffffffff021916908373ffffffffffffffffffffffffffffffffffffffff16021790555050505050565b61122b8383836115ca565b6112df57600073ffffffffffffffffffffffffffffffffffffffff168373ffffffffffffffffffffffffffffffffffffffff16036112a057806040517f7e2732890000000000000000000000000000000000000000000000000000000081526004016112979190611abf565b60405180910390fd5b81816040517f177e802f0000000000000000000000000000000000000000000000000000000081526004016112d692919061217a565b60405180910390fd5b505050565b6112ee838361168b565b6113036112f9610b37565b6000858585610d9f565b505050565b600073ffffffffffffffffffffffffffffffffffffffff168273ffffffffffffffffffffffffffffffffffffffff160361137957816040517f5b08ba1800000000000000000000000000000000000000000000000000000000815260040161137091906119a9565b60405180910390fd5b80600560008573ffffffffffffffffffffffffffffffffffffffff1673ffffffffffffffffffffffffffffffffffffffff16815260200190815260200160002060008473ffffffffffffffffffffffffffffffffffffffff1673ffffffffffffffffffffffffffffffffffffffff16815260200190815260200160002060006101000a81548160ff0219169083151502179055508173ffffffffffffffffffffffffffffffffffffffff168373ffffffffffffffffffffffffffffffffffffffff167f17307eab39ab6107e8899845ad3d59bd9653f200f220920489ca2b5937696c318360405161146a9190611838565b60405180910390a3505050565b600080600090507a184f03e93ff9f4daa797ed6e38ed64bf6a1f01000000000000000083106114d5577a184f03e93ff9f4daa797ed6e38ed64bf6a1f01000000000000000083816114cb576114ca61214b565b5b0492506040810190505b6d04ee2d6d415b85acef81000000008310611512576d04ee2d6d415b85acef810000000083816115085761150761214b565b5b0492506020810190505b662386f26fc10000831061154157662386f26fc1000083816115375761153661214b565b5b0492506010810190505b6305f5e100831061156a576305f5e10083816115605761155f61214b565b5b0492506008810190505b612710831061158f5761271083816115855761158461214b565b5b0492506004810190505b606483106115b257606483816115a8576115a761214b565b5b0492506002810190505b600a83106115c1576001810190505b80915050919050565b60008073ffffffffffffffffffffffffffffffffffffffff168373ffffffffffffffffffffffffffffffffffffffff161415801561168257508273ffffffffffffffffffffffffffffffffffffffff168473ffffffffffffffffffffffffffffffffffffffff16148061164357506116428484610974565b5b8061168157508273ffffffffffffffffffffffffffffffffffffffff1661166983610afa565b73ffffffffffffffffffffffffffffffffffffffff16145b5b90509392505050565b600073ffffffffffffffffffffffffffffffffffffffff168273ffffffffffffffffffffffffffffffffffffffff16036116fd5760006040517f64a0ae920000000000000000000000000000000000000000000000000000000081526004016116f491906119a9565b60405180910390fd5b600061170b83836000610b51565b9050600073ffffffffffffffffffffffffffffffffffffffff168173ffffffffffffffffffffffffffffffffffffffff161461177f5760006040517f73c6ac6e00000000000000000000000000000000000000000000000000000000815260040161177691906119a9565b60405180910390fd5b505050565b6000604051905090565b600080fd5b600080fd5b60007fffffffff0000000000000000000000000000000000000000000000000000000082169050919050565b6117cd81611798565b81146117d857600080fd5b50565b6000813590506117ea816117c4565b92915050565b6000602082840312156118065761180561178e565b5b6000611814848285016117db565b91505092915050565b60008115159050919050565b6118328161181d565b82525050565b600060208201905061184d6000830184611829565b92915050565b600081519050919050565b600082825260208201905092915050565b60005b8381101561188d578082015181840152602081019050611872565b60008484015250505050565b6000601f19601f8301169050919050565b60006118b582611853565b6118bf818561185e565b93506118cf81856020860161186f565b6118d881611899565b840191505092915050565b600060208201905081810360008301526118fd81846118aa565b905092915050565b6000819050919050565b61191881611905565b811461192357600080fd5b50565b6000813590506119358161190f565b92915050565b6000602082840312156119515761195061178e565b5b600061195f84828501611926565b91505092915050565b600073ffffffffffffffffffffffffffffffffffffffff82169050919050565b600061199382611968565b9050919050565b6119a381611988565b82525050565b60006020820190506119be600083018461199a565b92915050565b6119cd81611988565b81146119d857600080fd5b50565b6000813590506119ea816119c4565b92915050565b60008060408385031215611a0757611a0661178e565b5b6000611a15858286016119db565b9250506020611a2685828601611926565b9150509250929050565b600080600060608486031215611a4957611a4861178e565b5b6000611a57868287016119db565b9350506020611a68868287016119db565b9250506040611a7986828701611926565b9150509250925092565b600060208284031215611a9957611a9861178e565b5b6000611aa7848285016119db565b91505092915050565b611ab981611905565b82525050565b6000602082019050611ad46000830184611ab0565b92915050565b611ae38161181d565b8114611aee57600080fd5b50565b600081359050611b0081611ada565b92915050565b60008060408385031215611b1d57611b1c61178e565b5b6000611b2b858286016119db565b9250506020611b3c85828601611af1565b9150509250929050565b600080fd5b600080fd5b7f4e487b7100000000000000000000000000000000000000000000000000000000600052604160045260246000fd5b611b8882611899565b810181811067ffffffffffffffff82111715611ba757611ba6611b50565b5b80604052505050565b6000611bba611784565b9050611bc68282611b7f565b919050565b600067ffffffffffffffff821115611be657611be5611b50565b5b611bef82611899565b9050602081019050919050565b82818337600083830152505050565b6000611c1e611c1984611bcb565b611bb0565b905082815260208101848484011115611c3a57611c39611b4b565b5b611c45848285611bfc565b509392505050565b600082601f830112611c6257611c61611b46565b5b8135611c72848260208601611c0b565b91505092915050565b60008060008060808587031215611c9557611c9461178e565b5b6000611ca3878288016119db565b9450506020611cb4878288016119db565b9350506040611cc587828801611926565b925050606085013567ffffffffffffffff811115611ce657611ce5611793565b5b611cf287828801611c4d565b91505092959194509250565b60008060408385031215611d1557611d1461178e565b5b6000611d23858286016119db565b9250506020611d34858286016119db565b9150509250929050565b7f4e487b7100000000000000000000000000000000000000000000000000000000600052602260045260246000fd5b60006002820490506001821680611d8557607f821691505b602082108103611d9857611d97611d3e565b5b50919050565b6000606082019050611db3600083018661199a565b611dc06020830185611ab0565b611dcd604083018461199a565b949350505050565b7f4f6e6c79206d61696e436f6e74726163742063616e2063616c6c20746869732060008201527f66756e6374696f6e000000000000000000000000000000000000000000000000602082015250565b6000611e3160288361185e565b9150611e3c82611dd5565b604082019050919050565b60006020820190508181036000830152611e6081611e24565b9050919050565b7f4e487b7100000000000000000000000000000000000000000000000000000000600052601160045260246000fd5b6000611ea182611905565b91507fffffffffffffffffffffffffffffffffffffffffffffffffffffffffffffffff8203611ed357611ed2611e67565b5b600182019050919050565b7f4f6e6c792063726561746f722063616e2063616c6c20746869732066756e637460008201527f696f6e0000000000000000000000000000000000000000000000000000000000602082015250565b6000611f3a60238361185e565b9150611f4582611ede565b604082019050919050565b60006020820190508181036000830152611f6981611f2d565b9050919050565b600081905092915050565b60008190508160005260206000209050919050565b60008154611f9d81611d6d565b611fa78186611f70565b94506001821660008114611fc25760018114611fd75761200a565b60ff198316865281151582028601935061200a565b611fe085611f7b565b60005b8381101561200257815481890152600182019150602081019050611fe3565b838801955050505b50505092915050565b600061201e82611853565b6120288185611f70565b935061203881856020860161186f565b80840191505092915050565b60006120508285611f90565b915061205c8284612013565b91508190509392505050565b600081519050919050565b600082825260208201905092915050565b600061208f82612068565b6120998185612073565b93506120a981856020860161186f565b6120b281611899565b840191505092915050565b60006080820190506120d2600083018761199a565b6120df602083018661199a565b6120ec6040830185611ab0565b81810360608301526120fe8184612084565b905095945050505050565b600081519050612118816117c4565b92915050565b6000602082840312156121345761213361178e565b5b600061214284828501612109565b91505092915050565b7f4e487b7100000000000000000000000000000000000000000000000000000000600052601260045260246000fd5b600060408201905061218f600083018561199a565b61219c6020830184611ab0565b939250505056fea26469706673582212205c681c97d6bef9f055f8b9d2e70ad4bc4e3f8e10511aee79a8fa0765223df12f64736f6c634300081c0033a2646970667358221220a4c2dea31d1d079171b723b256ec11193cdfe6777adb7b52ef5e604130800d6064736f6c634300081c0033",
  "linkReferences": {},
  "deployedLinkReferences": {}
}