{
  "_format": "hh-sol-artifact-1",
  "contractName": "MainContract",
  "sourceName": "contracts/MainContract.sol",
  "abi": [
    {
      "inputs": [
        {
          "internalType": "address",
          "name": "initialOwner",
          "type": "address"
        },
        {
          "internalType": "uint256",
          "name": "_commission",
          "type": "uint256"
        },
        {
          "internalType": "address",
          "name": "_collectionManager",
          "type": "address"
        }
      ],
      "stateMutability": "nonpayable",
      "type": "constructor"
    },
    {
      "inputs": [],
      "name": "FailedToDeployContract",
      "type": "error"
    },
    {
      "inputs": [],
      "name": "InvalidPromo",
      "type": "error"
    },
    {
      "inputs": [
        {
          "internalType": "uint256",
          "name": "price",
          "type": "uint256"
        },
        {
          "internalType": "uint256",
          "name": "getPrice",
          "type": "uint256"
        }
      ],
      "name": "NotEnoughFunds",
      "type": "error"
    },
    {
      "inputs": [
        {
          "internalType": "address",
          "name": "owner",
          "type": "address"
        }
      ],
      "name": "OwnableInvalidOwner",
      "type": "error"
    },
    {
      "inputs": [
        {
          "internalType": "address",
          "name": "account",
          "type": "address"
        }
      ],
      "name": "OwnableUnauthorizedAccount",
      "type": "error"
    },
    {
      "inputs": [
        {
          "internalType": "bool",
          "name": "used",
          "type": "bool"
        }
      ],
      "name": "PromoUsedAlredy",
      "type": "error"
    },
    {
      "inputs": [],
      "name": "ReentrancyGuardReentrantCall",
      "type": "error"
    },
    {
      "inputs": [],
      "name": "TokenNotExsist",
      "type": "error"
    },
    {
      "inputs": [],
      "name": "ZeroCollectionAddress",
      "type": "error"
    },
    {
      "inputs": [],
      "name": "arraysMisMatch",
      "type": "error"
    },
    {
      "inputs": [],
      "name": "collectionNotFound",
      "type": "error"
    },
    {
      "inputs": [],
      "name": "incorrectAddress",
      "type": "error"
    },
    {
      "inputs": [],
      "name": "incorrectCollectionAddress",
      "type": "error"
    },
    {
      "inputs": [],
      "name": "incorrectId",
      "type": "error"
    },
    {
      "inputs": [],
      "name": "incorrectIndex",
      "type": "error"
    },
    {
      "inputs": [],
      "name": "incorrectNameLength",
      "type": "error"
    },
    {
      "inputs": [],
      "name": "incorrectPrice",
      "type": "error"
    },
    {
      "inputs": [],
      "name": "incorrectQuantity",
      "type": "error"
    },
    {
      "inputs": [],
      "name": "incorrectSymbolLength",
      "type": "error"
    },
    {
      "inputs": [],
      "name": "incorrectURI",
      "type": "error"
    },
    {
      "inputs": [],
      "name": "invalidPromoCode",
      "type": "error"
    },
    {
      "inputs": [],
      "name": "notEnoughFunds",
      "type": "error"
    },
    {
      "inputs": [],
      "name": "notEnoughProductsInStock",
      "type": "error"
    },
    {
      "inputs": [],
      "name": "onlyCollectionOwner",
      "type": "error"
    },
    {
      "inputs": [],
      "name": "onlyMainContract",
      "type": "error"
    },
    {
      "inputs": [],
      "name": "promoCodeNotFound",
      "type": "error"
    },
    {
      "anonymous": false,
      "inputs": [
        {
          "indexed": true,
          "internalType": "address",
          "name": "previousOwner",
          "type": "address"
        },
        {
          "indexed": true,
          "internalType": "address",
          "name": "newOwner",
          "type": "address"
        }
      ],
      "name": "OwnershipTransferred",
      "type": "event"
    },
    {
      "anonymous": false,
      "inputs": [
        {
          "indexed": false,
          "internalType": "address",
          "name": "buyer",
          "type": "address"
        },
        {
          "indexed": true,
          "internalType": "uint256",
          "name": "productId",
          "type": "uint256"
        },
        {
          "indexed": false,
          "internalType": "uint256",
          "name": "price",
          "type": "uint256"
        },
        {
          "indexed": false,
          "internalType": "uint256",
          "name": "cQuantity",
          "type": "uint256"
        }
      ],
      "name": "productPurchased",
      "type": "event"
    },
    {
      "anonymous": false,
      "inputs": [
        {
          "indexed": true,
          "internalType": "address",
          "name": "user",
          "type": "address"
        },
        {
          "indexed": true,
          "internalType": "uint256",
          "name": "productId",
          "type": "uint256"
        }
      ],
      "name": "promoCodeSuccessfullyUsed",
      "type": "event"
    },
    {
      "inputs": [
        {
          "internalType": "uint256[]",
          "name": "_ids",
          "type": "uint256[]"
        },
        {
          "internalType": "uint256[]",
          "name": "_quantities",
          "type": "uint256[]"
        }
      ],
      "name": "batchBuy",
      "outputs": [],
      "stateMutability": "payable",
      "type": "function"
    },
    {
      "inputs": [
        {
          "internalType": "uint256",
          "name": "_id",
          "type": "uint256"
        },
        {
          "internalType": "uint256",
          "name": "_quantity",
          "type": "uint256"
        }
      ],
      "name": "buy",
      "outputs": [],
      "stateMutability": "payable",
      "type": "function"
    },
    {
      "inputs": [],
      "name": "collectionManager",
      "outputs": [
        {
          "internalType": "contract ICollectionManager",
          "name": "",
          "type": "address"
        }
      ],
      "stateMutability": "view",
      "type": "function"
    },
    {
      "inputs": [],
      "name": "commission",
      "outputs": [
        {
          "internalType": "uint256",
          "name": "",
          "type": "uint256"
        }
      ],
      "stateMutability": "view",
      "type": "function"
    },
    {
      "inputs": [],
      "name": "owner",
      "outputs": [
        {
          "internalType": "address",
          "name": "",
          "type": "address"
        }
      ],
      "stateMutability": "view",
      "type": "function"
    },
    {
      "inputs": [],
      "name": "renounceOwnership",
      "outputs": [],
      "stateMutability": "nonpayable",
      "type": "function"
    },
    {
      "inputs": [
        {
          "internalType": "address",
          "name": "_newCollectionManager",
          "type": "address"
        }
      ],
      "name": "setCollectionManager",
      "outputs": [],
      "stateMutability": "nonpayable",
      "type": "function"
    },
    {
      "inputs": [
        {
          "internalType": "address",
          "name": "newOwner",
          "type": "address"
        }
      ],
      "name": "transferOwnership",
      "outputs": [],
      "stateMutability": "nonpayable",
      "type": "function"
    }
  ],
  "bytecode": "0x60a060405234801561001057600080fd5b50604051611c21380380611c2183398181016040528101906100329190610356565b82600073ffffffffffffffffffffffffffffffffffffffff168173ffffffffffffffffffffffffffffffffffffffff16036100a55760006040517f1e4fbdf700000000000000000000000000000000000000000000000000000000815260040161009c91906103b8565b60405180910390fd5b6100b4816101f960201b60201c565b50600180819055506064821115610100576040517f08c379a00000000000000000000000000000000000000000000000000000000081526004016100f790610430565b60405180910390fd5b600073ffffffffffffffffffffffffffffffffffffffff168173ffffffffffffffffffffffffffffffffffffffff160361016f576040517f08c379a00000000000000000000000000000000000000000000000000000000081526004016101669061049c565b60405180910390fd5b600073ffffffffffffffffffffffffffffffffffffffff168373ffffffffffffffffffffffffffffffffffffffff16036101a857600080fd5b80600260006101000a81548173ffffffffffffffffffffffffffffffffffffffff021916908373ffffffffffffffffffffffffffffffffffffffff16021790555081608081815250505050506104bc565b60008060009054906101000a900473ffffffffffffffffffffffffffffffffffffffff169050816000806101000a81548173ffffffffffffffffffffffffffffffffffffffff021916908373ffffffffffffffffffffffffffffffffffffffff1602179055508173ffffffffffffffffffffffffffffffffffffffff168173ffffffffffffffffffffffffffffffffffffffff167f8be0079c531659141344cd1fd0a4f28419497f9722a3daafe3b4186f6b6457e060405160405180910390a35050565b600080fd5b600073ffffffffffffffffffffffffffffffffffffffff82169050919050565b60006102ed826102c2565b9050919050565b6102fd816102e2565b811461030857600080fd5b50565b60008151905061031a816102f4565b92915050565b6000819050919050565b61033381610320565b811461033e57600080fd5b50565b6000815190506103508161032a565b92915050565b60008060006060848603121561036f5761036e6102bd565b5b600061037d8682870161030b565b935050602061038e86828701610341565b925050604061039f8682870161030b565b9150509250925092565b6103b2816102e2565b82525050565b60006020820190506103cd60008301846103a9565b92915050565b600082825260208201905092915050565b7f436f6d6d697373696f6e2063616e6e6f74206578636565642031303025000000600082015250565b600061041a601d836103d3565b9150610425826103e4565b602082019050919050565b600060208201905081810360008301526104498161040d565b9050919050565b7f63616e6e6f74206265206e756c6c000000000000000000000000000000000000600082015250565b6000610486600e836103d3565b915061049182610450565b602082019050919050565b600060208201905081810360008301526104b581610479565b9050919050565b6080516117356104ec600039600081816107c8015281816108f101528181610c1d0152610f7301526117356000f3fe60806040526004361061007b5760003560e01c80639fdf84691161004e5780639fdf846914610107578063d6febde814610132578063e14891911461014e578063f2fde38b146101795761007b565b80632a5c5fcc14610080578063715018a6146100a9578063723cdb1d146100c05780638da5cb5b146100dc575b600080fd5b34801561008c57600080fd5b506100a760048036038101906100a29190611225565b6101a2565b005b3480156100b557600080fd5b506100be6101ee565b005b6100da60048036038101906100d591906112b7565b610202565b005b3480156100e857600080fd5b506100f16109fc565b6040516100fe9190611347565b60405180910390f35b34801561011357600080fd5b5061011c610a25565b60405161012991906113c1565b60405180910390f35b61014c60048036038101906101479190611412565b610a4b565b005b34801561015a57600080fd5b50610163610f71565b6040516101709190611461565b60405180910390f35b34801561018557600080fd5b506101a0600480360381019061019b9190611225565b610f95565b005b6101aa61101b565b80600260006101000a81548173ffffffffffffffffffffffffffffffffffffffff021916908373ffffffffffffffffffffffffffffffffffffffff16021790555050565b6101f661101b565b61020060006110a2565b565b61020a611166565b818190508484905014610249576040517fb27221e600000000000000000000000000000000000000000000000000000000815260040160405180910390fd5b601984849050111561025a57600080fd5b6000805b858590508110156108b057600084848381811061027e5761027d61147c565b5b90506020020135116102bc576040517f318e00aa00000000000000000000000000000000000000000000000000000000815260040160405180910390fd5b6000600260009054906101000a900473ffffffffffffffffffffffffffffffffffffffff1673ffffffffffffffffffffffffffffffffffffffff16635ebd9ded88888581811061030f5761030e61147c565b5b905060200201356040518263ffffffff1660e01b81526004016103329190611461565b602060405180830381865afa15801561034f573d6000803e3d6000fd5b505050506040513d601f19601f8201168201806040525081019061037391906114c0565b90508484838181106103885761038761147c565b5b905060200201358110156103c8576040517f318e00aa00000000000000000000000000000000000000000000000000000000815260040160405180910390fd5b60008585848181106103dd576103dc61147c565b5b90506020020135600260009054906101000a900473ffffffffffffffffffffffffffffffffffffffff1673ffffffffffffffffffffffffffffffffffffffff1663e75722308a8a878181106104355761043461147c565b5b905060200201356040518263ffffffff1660e01b81526004016104589190611461565b602060405180830381865afa158015610475573d6000803e3d6000fd5b505050506040513d601f19601f8201168201806040525081019061049991906114c0565b6104a3919061151c565b905080846104b1919061155e565b9350600260009054906101000a900473ffffffffffffffffffffffffffffffffffffffff1673ffffffffffffffffffffffffffffffffffffffff1663a06e8b058787868181106105045761050361147c565b5b905060200201358a8a8781811061051e5761051d61147c565b5b90506020020135336040518463ffffffff1660e01b815260040161054493929190611592565b600060405180830381600087803b15801561055e57600080fd5b505af1158015610572573d6000803e3d6000fd5b50505050600260009054906101000a900473ffffffffffffffffffffffffffffffffffffffff1673ffffffffffffffffffffffffffffffffffffffff1663883dadb38989868181106105c7576105c661147c565b5b905060200201358888878181106105e1576105e061147c565b5b90506020020135600260009054906101000a900473ffffffffffffffffffffffffffffffffffffffff1673ffffffffffffffffffffffffffffffffffffffff16635ebd9ded8d8d8a8181106106395761063861147c565b5b905060200201356040518263ffffffff1660e01b815260040161065c9190611461565b602060405180830381865afa158015610679573d6000803e3d6000fd5b505050506040513d601f19601f8201168201806040525081019061069d91906114c0565b6106a791906115c9565b6040518363ffffffff1660e01b81526004016106c49291906115fd565b600060405180830381600087803b1580156106de57600080fd5b505af11580156106f2573d6000803e3d6000fd5b50505050600260009054906101000a900473ffffffffffffffffffffffffffffffffffffffff1673ffffffffffffffffffffffffffffffffffffffff1663b0ff46038989868181106107475761074661147c565b5b905060200201356040518263ffffffff1660e01b815260040161076a9190611461565b602060405180830381865afa158015610787573d6000803e3d6000fd5b505050506040513d601f19601f820116820180604052508101906107ab919061163b565b73ffffffffffffffffffffffffffffffffffffffff166108fc60647f0000000000000000000000000000000000000000000000000000000000000000846107f2919061151c565b6107fc9190611697565b8361080791906115c9565b9081150290604051600060405180830381858888f19350505050158015610832573d6000803e3d6000fd5b508787848181106108465761084561147c565b5b905060200201357fee0896847b0043f72b4550fa16fd2bb711d37289cbb0aa20c6135cedbb9b9f1b33838989888181106108835761088261147c565b5b90506020020135604051610899939291906116c8565b60405180910390a25050808060010191505061025e565b50803410156108eb576040517fa971ff6200000000000000000000000000000000000000000000000000000000815260040160405180910390fd5b600060647f00000000000000000000000000000000000000000000000000000000000000008361091b919061151c565b6109259190611697565b8261093091906115c9565b90506000818361094091906115c9565b90508234111561099d573373ffffffffffffffffffffffffffffffffffffffff166108fc843461097091906115c9565b9081150290604051600060405180830381858888f1935050505015801561099b573d6000803e3d6000fd5b505b6109a56109fc565b73ffffffffffffffffffffffffffffffffffffffff166108fc829081150290604051600060405180830381858888f193505050501580156109ea573d6000803e3d6000fd5b505050506109f66111ac565b50505050565b60008060009054906101000a900473ffffffffffffffffffffffffffffffffffffffff16905090565b600260009054906101000a900473ffffffffffffffffffffffffffffffffffffffff1681565b610a53611166565b6000600260009054906101000a900473ffffffffffffffffffffffffffffffffffffffff1673ffffffffffffffffffffffffffffffffffffffff1663e7572230846040518263ffffffff1660e01b8152600401610ab09190611461565b602060405180830381865afa158015610acd573d6000803e3d6000fd5b505050506040513d601f19601f82011682018060405250810190610af191906114c0565b90506000600260009054906101000a900473ffffffffffffffffffffffffffffffffffffffff1673ffffffffffffffffffffffffffffffffffffffff16635ebd9ded856040518263ffffffff1660e01b8152600401610b509190611461565b602060405180830381865afa158015610b6d573d6000803e3d6000fd5b505050506040513d601f19601f82011682018060405250810190610b9191906114c0565b905082811015610bcd576040517f318e00aa00000000000000000000000000000000000000000000000000000000815260040160405180910390fd5b60008383610bdb919061151c565b905080341015610c17576040517fa971ff6200000000000000000000000000000000000000000000000000000000815260040160405180910390fd5b600060647f000000000000000000000000000000000000000000000000000000000000000083610c47919061151c565b610c519190611697565b82610c5c91906115c9565b905060008183610c6c91906115c9565b905082341115610cc9573373ffffffffffffffffffffffffffffffffffffffff166108fc8434610c9c91906115c9565b9081150290604051600060405180830381858888f19350505050158015610cc7573d6000803e3d6000fd5b505b600260009054906101000a900473ffffffffffffffffffffffffffffffffffffffff1673ffffffffffffffffffffffffffffffffffffffff1663a06e8b058789336040518463ffffffff1660e01b8152600401610d2893929190611592565b600060405180830381600087803b158015610d4257600080fd5b505af1158015610d56573d6000803e3d6000fd5b50505050600260009054906101000a900473ffffffffffffffffffffffffffffffffffffffff1673ffffffffffffffffffffffffffffffffffffffff1663883dadb38786610da491906115c9565b896040518363ffffffff1660e01b8152600401610dc29291906115fd565b600060405180830381600087803b158015610ddc57600080fd5b505af1158015610df0573d6000803e3d6000fd5b50505050600260009054906101000a900473ffffffffffffffffffffffffffffffffffffffff1673ffffffffffffffffffffffffffffffffffffffff1663b0ff4603886040518263ffffffff1660e01b8152600401610e4f9190611461565b602060405180830381865afa158015610e6c573d6000803e3d6000fd5b505050506040513d601f19601f82011682018060405250810190610e90919061163b565b73ffffffffffffffffffffffffffffffffffffffff166108fc839081150290604051600060405180830381858888f19350505050158015610ed5573d6000803e3d6000fd5b50610ede6109fc565b73ffffffffffffffffffffffffffffffffffffffff166108fc829081150290604051600060405180830381858888f19350505050158015610f23573d6000803e3d6000fd5b50867fee0896847b0043f72b4550fa16fd2bb711d37289cbb0aa20c6135cedbb9b9f1b338789604051610f58939291906116c8565b60405180910390a25050505050610f6d6111ac565b5050565b7f000000000000000000000000000000000000000000000000000000000000000081565b610f9d61101b565b600073ffffffffffffffffffffffffffffffffffffffff168173ffffffffffffffffffffffffffffffffffffffff160361100f5760006040517f1e4fbdf70000000000000000000000000000000000000000000000000000000081526004016110069190611347565b60405180910390fd5b611018816110a2565b50565b6110236111b5565b73ffffffffffffffffffffffffffffffffffffffff166110416109fc565b73ffffffffffffffffffffffffffffffffffffffff16146110a0576110646111b5565b6040517f118cdaa70000000000000000000000000000000000000000000000000000000081526004016110979190611347565b60405180910390fd5b565b60008060009054906101000a900473ffffffffffffffffffffffffffffffffffffffff169050816000806101000a81548173ffffffffffffffffffffffffffffffffffffffff021916908373ffffffffffffffffffffffffffffffffffffffff1602179055508173ffffffffffffffffffffffffffffffffffffffff168173ffffffffffffffffffffffffffffffffffffffff167f8be0079c531659141344cd1fd0a4f28419497f9722a3daafe3b4186f6b6457e060405160405180910390a35050565b6002600154036111a2576040517f3ee5aeb500000000000000000000000000000000000000000000000000000000815260040160405180910390fd5b6002600181905550565b60018081905550565b600033905090565b600080fd5b600080fd5b600073ffffffffffffffffffffffffffffffffffffffff82169050919050565b60006111f2826111c7565b9050919050565b611202816111e7565b811461120d57600080fd5b50565b60008135905061121f816111f9565b92915050565b60006020828403121561123b5761123a6111bd565b5b600061124984828501611210565b91505092915050565b600080fd5b600080fd5b600080fd5b60008083601f84011261127757611276611252565b5b8235905067ffffffffffffffff81111561129457611293611257565b5b6020830191508360208202830111156112b0576112af61125c565b5b9250929050565b600080600080604085870312156112d1576112d06111bd565b5b600085013567ffffffffffffffff8111156112ef576112ee6111c2565b5b6112fb87828801611261565b9450945050602085013567ffffffffffffffff81111561131e5761131d6111c2565b5b61132a87828801611261565b925092505092959194509250565b611341816111e7565b82525050565b600060208201905061135c6000830184611338565b92915050565b6000819050919050565b600061138761138261137d846111c7565b611362565b6111c7565b9050919050565b60006113998261136c565b9050919050565b60006113ab8261138e565b9050919050565b6113bb816113a0565b82525050565b60006020820190506113d660008301846113b2565b92915050565b6000819050919050565b6113ef816113dc565b81146113fa57600080fd5b50565b60008135905061140c816113e6565b92915050565b60008060408385031215611429576114286111bd565b5b6000611437858286016113fd565b9250506020611448858286016113fd565b9150509250929050565b61145b816113dc565b82525050565b60006020820190506114766000830184611452565b92915050565b7f4e487b7100000000000000000000000000000000000000000000000000000000600052603260045260246000fd5b6000815190506114ba816113e6565b92915050565b6000602082840312156114d6576114d56111bd565b5b60006114e4848285016114ab565b91505092915050565b7f4e487b7100000000000000000000000000000000000000000000000000000000600052601160045260246000fd5b6000611527826113dc565b9150611532836113dc565b9250828202611540816113dc565b91508282048414831517611557576115566114ed565b5b5092915050565b6000611569826113dc565b9150611574836113dc565b925082820190508082111561158c5761158b6114ed565b5b92915050565b60006060820190506115a76000830186611452565b6115b46020830185611452565b6115c16040830184611338565b949350505050565b60006115d4826113dc565b91506115df836113dc565b92508282039050818111156115f7576115f66114ed565b5b92915050565b60006040820190506116126000830185611452565b61161f6020830184611452565b9392505050565b600081519050611635816111f9565b92915050565b600060208284031215611651576116506111bd565b5b600061165f84828501611626565b91505092915050565b7f4e487b7100000000000000000000000000000000000000000000000000000000600052601260045260246000fd5b60006116a2826113dc565b91506116ad836113dc565b9250826116bd576116bc611668565b5b828204905092915050565b60006060820190506116dd6000830186611338565b6116ea6020830185611452565b6116f76040830184611452565b94935050505056fea2646970667358221220473c3d650ae8d2f1282783754ee2548065a289838d9dfce9557c0f5bb41a7b8a64736f6c634300081c0033",
  "linkReferences": {},
  "deployedLinkReferences": {}
}