{
  "_format": "hh-sol-artifact-1",
  "contractName": "NewERC721Collection",
  "sourceName": "contracts/NewERC721Collection.sol",
  "abi": [
    {
      "inputs": [
        {
          "internalType": "string",
          "name": "_name",
          "type": "string"
        },
        {
          "internalType": "string",
          "name": "_symbol",
          "type": "string"
        },
        {
          "internalType": "string",
          "name": "_collectionURI",
          "type": "string"
        },
        {
          "internalType": "address",
          "name": "_creator",
          "type": "address"
        },
        {
          "internalType": "address",
          "name": "_platformOwner",
          "type": "address"
        },
        {
          "internalType": "address",
          "name": "_mainContract",
          "type": "address"
        }
      ],
      "stateMutability": "nonpayable",
      "type": "constructor"
    },
    {
      "inputs": [
        {
          "internalType": "address",
          "name": "sender",
          "type": "address"
        },
        {
          "internalType": "uint256",
          "name": "tokenId",
          "type": "uint256"
        },
        {
          "internalType": "address",
          "name": "owner",
          "type": "address"
        }
      ],
      "name": "ERC721IncorrectOwner",
      "type": "error"
    },
    {
      "inputs": [
        {
          "internalType": "address",
          "name": "operator",
          "type": "address"
        },
        {
          "internalType": "uint256",
          "name": "tokenId",
          "type": "uint256"
        }
      ],
      "name": "ERC721InsufficientApproval",
      "type": "error"
    },
    {
      "inputs": [
        {
          "internalType": "address",
          "name": "approver",
          "type": "address"
        }
      ],
      "name": "ERC721InvalidApprover",
      "type": "error"
    },
    {
      "inputs": [
        {
          "internalType": "address",
          "name": "operator",
          "type": "address"
        }
      ],
      "name": "ERC721InvalidOperator",
      "type": "error"
    },
    {
      "inputs": [
        {
          "internalType": "address",
          "name": "owner",
          "type": "address"
        }
      ],
      "name": "ERC721InvalidOwner",
      "type": "error"
    },
    {
      "inputs": [
        {
          "internalType": "address",
          "name": "receiver",
          "type": "address"
        }
      ],
      "name": "ERC721InvalidReceiver",
      "type": "error"
    },
    {
      "inputs": [
        {
          "internalType": "address",
          "name": "sender",
          "type": "address"
        }
      ],
      "name": "ERC721InvalidSender",
      "type": "error"
    },
    {
      "inputs": [
        {
          "internalType": "uint256",
          "name": "tokenId",
          "type": "uint256"
        }
      ],
      "name": "ERC721NonexistentToken",
      "type": "error"
    },
    {
      "anonymous": false,
      "inputs": [
        {
          "indexed": true,
          "internalType": "address",
          "name": "owner",
          "type": "address"
        },
        {
          "indexed": true,
          "internalType": "address",
          "name": "approved",
          "type": "address"
        },
        {
          "indexed": true,
          "internalType": "uint256",
          "name": "tokenId",
          "type": "uint256"
        }
      ],
      "name": "Approval",
      "type": "event"
    },
    {
      "anonymous": false,
      "inputs": [
        {
          "indexed": true,
          "internalType": "address",
          "name": "owner",
          "type": "address"
        },
        {
          "indexed": true,
          "internalType": "address",
          "name": "operator",
          "type": "address"
        },
        {
          "indexed": false,
          "internalType": "bool",
          "name": "approved",
          "type": "bool"
        }
      ],
      "name": "ApprovalForAll",
      "type": "event"
    },
    {
      "anonymous": false,
      "inputs": [
        {
          "indexed": true,
          "internalType": "address",
          "name": "from",
          "type": "address"
        },
        {
          "indexed": true,
          "internalType": "address",
          "name": "to",
          "type": "address"
        },
        {
          "indexed": true,
          "internalType": "uint256",
          "name": "tokenId",
          "type": "uint256"
        }
      ],
      "name": "Transfer",
      "type": "event"
    },
    {
      "inputs": [
        {
          "internalType": "address",
          "name": "to",
          "type": "address"
        },
        {
          "internalType": "uint256",
          "name": "tokenId",
          "type": "uint256"
        }
      ],
      "name": "approve",
      "outputs": [],
      "stateMutability": "nonpayable",
      "type": "function"
    },
    {
      "inputs": [
        {
          "internalType": "address",
          "name": "owner",
          "type": "address"
        }
      ],
      "name": "balanceOf",
      "outputs": [
        {
          "internalType": "uint256",
          "name": "",
          "type": "uint256"
        }
      ],
      "stateMutability": "view",
      "type": "function"
    },
    {
      "inputs": [
        {
          "internalType": "uint256",
          "name": "tokenId",
          "type": "uint256"
        }
      ],
      "name": "getApproved",
      "outputs": [
        {
          "internalType": "address",
          "name": "",
          "type": "address"
        }
      ],
      "stateMutability": "view",
      "type": "function"
    },
    {
      "inputs": [
        {
          "internalType": "address",
          "name": "owner",
          "type": "address"
        },
        {
          "internalType": "address",
          "name": "operator",
          "type": "address"
        }
      ],
      "name": "isApprovedForAll",
      "outputs": [
        {
          "internalType": "bool",
          "name": "",
          "type": "bool"
        }
      ],
      "stateMutability": "view",
      "type": "function"
    },
    {
      "inputs": [],
      "name": "mainContract",
      "outputs": [
        {
          "internalType": "address",
          "name": "",
          "type": "address"
        }
      ],
      "stateMutability": "view",
      "type": "function"
    },
    {
      "inputs": [
        {
          "internalType": "address",
          "name": "_to",
          "type": "address"
        }
      ],
      "name": "mint",
      "outputs": [],
      "stateMutability": "nonpayable",
      "type": "function"
    },
    {
      "inputs": [],
      "name": "name",
      "outputs": [
        {
          "internalType": "string",
          "name": "",
          "type": "string"
        }
      ],
      "stateMutability": "view",
      "type": "function"
    },
    {
      "inputs": [
        {
          "internalType": "uint256",
          "name": "tokenId",
          "type": "uint256"
        }
      ],
      "name": "ownerOf",
      "outputs": [
        {
          "internalType": "address",
          "name": "",
          "type": "address"
        }
      ],
      "stateMutability": "view",
      "type": "function"
    },
    {
      "inputs": [
        {
          "internalType": "address",
          "name": "from",
          "type": "address"
        },
        {
          "internalType": "address",
          "name": "to",
          "type": "address"
        },
        {
          "internalType": "uint256",
          "name": "tokenId",
          "type": "uint256"
        }
      ],
      "name": "safeTransferFrom",
      "outputs": [],
      "stateMutability": "nonpayable",
      "type": "function"
    },
    {
      "inputs": [
        {
          "internalType": "address",
          "name": "from",
          "type": "address"
        },
        {
          "internalType": "address",
          "name": "to",
          "type": "address"
        },
        {
          "internalType": "uint256",
          "name": "tokenId",
          "type": "uint256"
        },
        {
          "internalType": "bytes",
          "name": "data",
          "type": "bytes"
        }
      ],
      "name": "safeTransferFrom",
      "outputs": [],
      "stateMutability": "nonpayable",
      "type": "function"
    },
    {
      "inputs": [
        {
          "internalType": "address",
          "name": "operator",
          "type": "address"
        },
        {
          "internalType": "bool",
          "name": "approved",
          "type": "bool"
        }
      ],
      "name": "setApprovalForAll",
      "outputs": [],
      "stateMutability": "nonpayable",
      "type": "function"
    },
    {
      "inputs": [
        {
          "internalType": "bytes4",
          "name": "interfaceId",
          "type": "bytes4"
        }
      ],
      "name": "supportsInterface",
      "outputs": [
        {
          "internalType": "bool",
          "name": "",
          "type": "bool"
        }
      ],
      "stateMutability": "view",
      "type": "function"
    },
    {
      "inputs": [],
      "name": "symbol",
      "outputs": [
        {
          "internalType": "string",
          "name": "",
          "type": "string"
        }
      ],
      "stateMutability": "view",
      "type": "function"
    },
    {
      "inputs": [
        {
          "internalType": "uint256",
          "name": "tokenId",
          "type": "uint256"
        }
      ],
      "name": "tokenURI",
      "outputs": [
        {
          "internalType": "string",
          "name": "",
          "type": "string"
        }
      ],
      "stateMutability": "view",
      "type": "function"
    },
    {
      "inputs": [
        {
          "internalType": "address",
          "name": "from",
          "type": "address"
        },
        {
          "internalType": "address",
          "name": "to",
          "type": "address"
        },
        {
          "internalType": "uint256",
          "name": "tokenId",
          "type": "uint256"
        }
      ],
      "name": "transferFrom",
      "outputs": [],
      "stateMutability": "nonpayable",
      "type": "function"
    }
  ],
  "bytecode": "0x608060405234801561001057600080fd5b50604051612bb1380380612bb183398181016040528101906100329190610454565b858581600090816100439190610756565b5080600190816100539190610756565b505050600073ffffffffffffffffffffffffffffffffffffffff168373ffffffffffffffffffffffffffffffffffffffff16036100c5576040517f08c379a00000000000000000000000000000000000000000000000000000000081526004016100bc90610885565b60405180910390fd5b600073ffffffffffffffffffffffffffffffffffffffff168273ffffffffffffffffffffffffffffffffffffffff1603610134576040517f08c379a000000000000000000000000000000000000000000000000000000000815260040161012b90610917565b60405180910390fd5b600073ffffffffffffffffffffffffffffffffffffffff168173ffffffffffffffffffffffffffffffffffffffff16036101a3576040517f08c379a000000000000000000000000000000000000000000000000000000000815260040161019a906109a9565b60405180910390fd5b82600960006101000a81548173ffffffffffffffffffffffffffffffffffffffff021916908373ffffffffffffffffffffffffffffffffffffffff16021790555081600a60006101000a81548173ffffffffffffffffffffffffffffffffffffffff021916908373ffffffffffffffffffffffffffffffffffffffff16021790555083600790816102349190610756565b5080600860006101000a81548173ffffffffffffffffffffffffffffffffffffffff021916908373ffffffffffffffffffffffffffffffffffffffff1602179055505050505050506109c9565b6000604051905090565b600080fd5b600080fd5b600080fd5b600080fd5b6000601f19601f8301169050919050565b7f4e487b7100000000000000000000000000000000000000000000000000000000600052604160045260246000fd5b6102e88261029f565b810181811067ffffffffffffffff82111715610307576103066102b0565b5b80604052505050565b600061031a610281565b905061032682826102df565b919050565b600067ffffffffffffffff821115610346576103456102b0565b5b61034f8261029f565b9050602081019050919050565b60005b8381101561037a57808201518184015260208101905061035f565b60008484015250505050565b60006103996103948461032b565b610310565b9050828152602081018484840111156103b5576103b461029a565b5b6103c084828561035c565b509392505050565b600082601f8301126103dd576103dc610295565b5b81516103ed848260208601610386565b91505092915050565b600073ffffffffffffffffffffffffffffffffffffffff82169050919050565b6000610421826103f6565b9050919050565b61043181610416565b811461043c57600080fd5b50565b60008151905061044e81610428565b92915050565b60008060008060008060c087890312156104715761047061028b565b5b600087015167ffffffffffffffff81111561048f5761048e610290565b5b61049b89828a016103c8565b965050602087015167ffffffffffffffff8111156104bc576104bb610290565b5b6104c889828a016103c8565b955050604087015167ffffffffffffffff8111156104e9576104e8610290565b5b6104f589828a016103c8565b945050606061050689828a0161043f565b935050608061051789828a0161043f565b92505060a061052889828a0161043f565b9150509295509295509295565b600081519050919050565b7f4e487b7100000000000000000000000000000000000000000000000000000000600052602260045260246000fd5b6000600282049050600182168061058757607f821691505b60208210810361059a57610599610540565b5b50919050565b60008190508160005260206000209050919050565b60006020601f8301049050919050565b600082821b905092915050565b6000600883026106027fffffffffffffffffffffffffffffffffffffffffffffffffffffffffffffffff826105c5565b61060c86836105c5565b95508019841693508086168417925050509392505050565b6000819050919050565b6000819050919050565b600061065361064e61064984610624565b61062e565b610624565b9050919050565b6000819050919050565b61066d83610638565b6106816106798261065a565b8484546105d2565b825550505050565b600090565b610696610689565b6106a1818484610664565b505050565b5b818110156106c5576106ba60008261068e565b6001810190506106a7565b5050565b601f82111561070a576106db816105a0565b6106e4846105b5565b810160208510156106f3578190505b6107076106ff856105b5565b8301826106a6565b50505b505050565b600082821c905092915050565b600061072d6000198460080261070f565b1980831691505092915050565b6000610746838361071c565b9150826002028217905092915050565b61075f82610535565b67ffffffffffffffff811115610778576107776102b0565b5b610782825461056f565b61078d8282856106c9565b600060209050601f8311600181146107c057600084156107ae578287015190505b6107b8858261073a565b865550610820565b601f1984166107ce866105a0565b60005b828110156107f6578489015182556001820191506020850194506020810190506107d1565b86831015610813578489015161080f601f89168261071c565b8355505b6001600288020188555050505b505050505050565b600082825260208201905092915050565b7f43726561746f722063616e6e6f74206265207a65726f20616464726573730000600082015250565b600061086f601e83610828565b915061087a82610839565b602082019050919050565b6000602082019050818103600083015261089e81610862565b9050919050565b7f4d61726b6574706c6163652063726561746f722063616e6e6f74206265207a6560008201527f726f206164647265737300000000000000000000000000000000000000000000602082015250565b6000610901602a83610828565b915061090c826108a5565b604082019050919050565b60006020820190508181036000830152610930816108f4565b9050919050565b7f4d61696e20636f6e74726163742063616e6e6f74206265207a65726f2061646460008201527f7265737300000000000000000000000000000000000000000000000000000000602082015250565b6000610993602483610828565b915061099e82610937565b604082019050919050565b600060208201905081810360008301526109c281610986565b9050919050565b6121d9806109d86000396000f3fe608060405234801561001057600080fd5b50600436106100f55760003560e01c80636a62784211610097578063b88d4fde11610066578063b88d4fde14610282578063c87b56dd1461029e578063d270e7ab146102ce578063e985e9c5146102ec576100f5565b80636a627842146101fc57806370a082311461021857806395d89b4114610248578063a22cb46514610266576100f5565b8063095ea7b3116100d3578063095ea7b31461017857806323b872dd1461019457806342842e0e146101b05780636352211e146101cc576100f5565b806301ffc9a7146100fa57806306fdde031461012a578063081812fc14610148575b600080fd5b610114600480360381019061010f91906117f0565b61031c565b6040516101219190611838565b60405180910390f35b6101326103fe565b60405161013f91906118e3565b60405180910390f35b610162600480360381019061015d919061193b565b610490565b60405161016f91906119a9565b60405180910390f35b610192600480360381019061018d91906119f0565b6104ac565b005b6101ae60048036038101906101a99190611a30565b6104c2565b005b6101ca60048036038101906101c59190611a30565b6105c4565b005b6101e660048036038101906101e1919061193b565b6105e4565b6040516101f391906119a9565b60405180910390f35b61021660048036038101906102119190611a83565b6105f6565b005b610232600480360381019061022d9190611a83565b6106b3565b60405161023f9190611abf565b60405180910390f35b61025061076d565b60405161025d91906118e3565b60405180910390f35b610280600480360381019061027b9190611b06565b6107ff565b005b61029c60048036038101906102979190611c7b565b6108f5565b005b6102b860048036038101906102b3919061193b565b61091a565b6040516102c591906118e3565b60405180910390f35b6102d661094e565b6040516102e391906119a9565b60405180910390f35b61030660048036038101906103019190611cfe565b610974565b6040516103139190611838565b60405180910390f35b60007f80ac58cd000000000000000000000000000000000000000000000000000000007bffffffffffffffffffffffffffffffffffffffffffffffffffffffff1916827bffffffffffffffffffffffffffffffffffffffffffffffffffffffff191614806103e757507f5b5e139f000000000000000000000000000000000000000000000000000000007bffffffffffffffffffffffffffffffffffffffffffffffffffffffff1916827bffffffffffffffffffffffffffffffffffffffffffffffffffffffff1916145b806103f757506103f682610a08565b5b9050919050565b60606000805461040d90611d6d565b80601f016020809104026020016040519081016040528092919081815260200182805461043990611d6d565b80156104865780601f1061045b57610100808354040283529160200191610486565b820191906000526020600020905b81548152906001019060200180831161046957829003601f168201915b5050505050905090565b600061049b82610a72565b506104a582610afa565b9050919050565b6104be82826104b9610b37565b610b3f565b5050565b600073ffffffffffffffffffffffffffffffffffffffff168273ffffffffffffffffffffffffffffffffffffffff16036105345760006040517f64a0ae9200000000000000000000000000000000000000000000000000000000815260040161052b91906119a9565b60405180910390fd5b60006105488383610543610b37565b610b51565b90508373ffffffffffffffffffffffffffffffffffffffff168173ffffffffffffffffffffffffffffffffffffffff16146105be578382826040517f64283d7b0000000000000000000000000000000000000000000000000000000081526004016105b593929190611d9e565b60405180910390fd5b50505050565b6105df838383604051806020016040528060008152506108f5565b505050565b60006105ef82610a72565b9050919050565b600860009054906101000a900473ffffffffffffffffffffffffffffffffffffffff1673ffffffffffffffffffffffffffffffffffffffff163373ffffffffffffffffffffffffffffffffffffffff1614610686576040517f08c379a000000000000000000000000000000000000000000000000000000000815260040161067d90611e47565b60405180910390fd5b600060065490506106978282610d6b565b600660008154809291906106aa90611e96565b91905055505050565b60008073ffffffffffffffffffffffffffffffffffffffff168273ffffffffffffffffffffffffffffffffffffffff16036107265760006040517f89c62b6400000000000000000000000000000000000000000000000000000000815260040161071d91906119a9565b60405180910390fd5b600360008373ffffffffffffffffffffffffffffffffffffffff1673ffffffffffffffffffffffffffffffffffffffff168152602001908152602001600020549050919050565b60606001805461077c90611d6d565b80601f01602080910402602001604051908101604052809291908181526020018280546107a890611d6d565b80156107f55780601f106107ca576101008083540402835291602001916107f5565b820191906000526020600020905b8154815290600101906020018083116107d857829003601f168201915b5050505050905090565b600a60009054906101000a900473ffffffffffffffffffffffffffffffffffffffff1673ffffffffffffffffffffffffffffffffffffffff163373ffffffffffffffffffffffffffffffffffffffff1614806108a85750600960009054906101000a900473ffffffffffffffffffffffffffffffffffffffff1673ffffffffffffffffffffffffffffffffffffffff163373ffffffffffffffffffffffffffffffffffffffff16145b6108e7576040517f08c379a00000000000000000000000000000000000000000000000000000000081526004016108de90611f50565b60405180910390fd5b6108f18282610d89565b5050565b6109008484846104c2565b61091461090b610b37565b85858585610d9f565b50505050565b6060600761092783610f50565b604051602001610938929190612044565b6040516020818303038152906040529050919050565b600860009054906101000a900473ffffffffffffffffffffffffffffffffffffffff1681565b6000600560008473ffffffffffffffffffffffffffffffffffffffff1673ffffffffffffffffffffffffffffffffffffffff16815260200190815260200160002060008373ffffffffffffffffffffffffffffffffffffffff1673ffffffffffffffffffffffffffffffffffffffff16815260200190815260200160002060009054906101000a900460ff16905092915050565b60007f01ffc9a7000000000000000000000000000000000000000000000000000000007bffffffffffffffffffffffffffffffffffffffffffffffffffffffff1916827bffffffffffffffffffffffffffffffffffffffffffffffffffffffff1916149050919050565b600080610a7e8361101e565b9050600073ffffffffffffffffffffffffffffffffffffffff168173ffffffffffffffffffffffffffffffffffffffff1603610af157826040517f7e273289000000000000000000000000000000000000000000000000000000008152600401610ae89190611abf565b60405180910390fd5b80915050919050565b60006004600083815260200190815260200160002060009054906101000a900473ffffffffffffffffffffffffffffffffffffffff169050919050565b600033905090565b610b4c838383600161105b565b505050565b600080610b5d8461101e565b9050600073ffffffffffffffffffffffffffffffffffffffff168373ffffffffffffffffffffffffffffffffffffffff1614610b9f57610b9e818486611220565b5b600073ffffffffffffffffffffffffffffffffffffffff168173ffffffffffffffffffffffffffffffffffffffff1614610c3057610be160008560008061105b565b6001600360008373ffffffffffffffffffffffffffffffffffffffff1673ffffffffffffffffffffffffffffffffffffffff168152602001908152602001600020600082825403925050819055505b600073ffffffffffffffffffffffffffffffffffffffff168573ffffffffffffffffffffffffffffffffffffffff1614610cb3576001600360008773ffffffffffffffffffffffffffffffffffffffff1673ffffffffffffffffffffffffffffffffffffffff168152602001908152602001600020600082825401925050819055505b846002600086815260200190815260200160002060006101000a81548173ffffffffffffffffffffffffffffffffffffffff021916908373ffffffffffffffffffffffffffffffffffffffff160217905550838573ffffffffffffffffffffffffffffffffffffffff168273ffffffffffffffffffffffffffffffffffffffff167fddf252ad1be2c89b69c2b068fc378daa952ba7f163c4a11628f55a4df523b3ef60405160405180910390a4809150509392505050565b610d858282604051806020016040528060008152506112e4565b5050565b610d9b610d94610b37565b8383611308565b5050565b60008373ffffffffffffffffffffffffffffffffffffffff163b1115610f49578273ffffffffffffffffffffffffffffffffffffffff1663150b7a02868685856040518563ffffffff1660e01b8152600401610dfe94939291906120bd565b6020604051808303816000875af1925050508015610e3a57506040513d601f19601f82011682018060405250810190610e37919061211e565b60015b610ebe573d8060008114610e6a576040519150601f19603f3d011682016040523d82523d6000602084013e610e6f565b606091505b506000815103610eb657836040517f64a0ae92000000000000000000000000000000000000000000000000000000008152600401610ead91906119a9565b60405180910390fd5b805181602001fd5b63150b7a0260e01b7bffffffffffffffffffffffffffffffffffffffffffffffffffffffff1916817bffffffffffffffffffffffffffffffffffffffffffffffffffffffff191614610f4757836040517f64a0ae92000000000000000000000000000000000000000000000000000000008152600401610f3e91906119a9565b60405180910390fd5b505b5050505050565b606060006001610f5f84611477565b01905060008167ffffffffffffffff811115610f7e57610f7d611b50565b5b6040519080825280601f01601f191660200182016040528015610fb05781602001600182028036833780820191505090505b509050600082602001820190505b600115611013578080600190039150507f3031323334353637383961626364656600000000000000000000000000000000600a86061a8153600a85816110075761100661214b565b5b04945060008503610fbe575b819350505050919050565b60006002600083815260200190815260200160002060009054906101000a900473ffffffffffffffffffffffffffffffffffffffff169050919050565b80806110945750600073ffffffffffffffffffffffffffffffffffffffff168273ffffffffffffffffffffffffffffffffffffffff1614155b156111c85760006110a484610a72565b9050600073ffffffffffffffffffffffffffffffffffffffff168373ffffffffffffffffffffffffffffffffffffffff161415801561110f57508273ffffffffffffffffffffffffffffffffffffffff168173ffffffffffffffffffffffffffffffffffffffff1614155b801561112257506111208184610974565b155b1561116457826040517fa9fbf51f00000000000000000000000000000000000000000000000000000000815260040161115b91906119a9565b60405180910390fd5b81156111c657838573ffffffffffffffffffffffffffffffffffffffff168273ffffffffffffffffffffffffffffffffffffffff167f8c5be1e5ebec7d5bd14f71427d1e84f3dd0314c0f7b2291e5b200ac8c7c3b92560405160405180910390a45b505b836004600085815260200190815260200160002060006101000a81548173ffffffffffffffffffffffffffffffffffffffff021916908373ffffffffffffffffffffffffffffffffffffffff16021790555050505050565b61122b8383836115ca565b6112df57600073ffffffffffffffffffffffffffffffffffffffff168373ffffffffffffffffffffffffffffffffffffffff16036112a057806040517f7e2732890000000000000000000000000000000000000000000000000000000081526004016112979190611abf565b60405180910390fd5b81816040517f177e802f0000000000000000000000000000000000000000000000000000000081526004016112d692919061217a565b60405180910390fd5b505050565b6112ee838361168b565b6113036112f9610b37565b6000858585610d9f565b505050565b600073ffffffffffffffffffffffffffffffffffffffff168273ffffffffffffffffffffffffffffffffffffffff160361137957816040517f5b08ba1800000000000000000000000000000000000000000000000000000000815260040161137091906119a9565b60405180910390fd5b80600560008573ffffffffffffffffffffffffffffffffffffffff1673ffffffffffffffffffffffffffffffffffffffff16815260200190815260200160002060008473ffffffffffffffffffffffffffffffffffffffff1673ffffffffffffffffffffffffffffffffffffffff16815260200190815260200160002060006101000a81548160ff0219169083151502179055508173ffffffffffffffffffffffffffffffffffffffff168373ffffffffffffffffffffffffffffffffffffffff167f17307eab39ab6107e8899845ad3d59bd9653f200f220920489ca2b5937696c318360405161146a9190611838565b60405180910390a3505050565b600080600090507a184f03e93ff9f4daa797ed6e38ed64bf6a1f01000000000000000083106114d5577a184f03e93ff9f4daa797ed6e38ed64bf6a1f01000000000000000083816114cb576114ca61214b565b5b0492506040810190505b6d04ee2d6d415b85acef81000000008310611512576d04ee2d6d415b85acef810000000083816115085761150761214b565b5b0492506020810190505b662386f26fc10000831061154157662386f26fc1000083816115375761153661214b565b5b0492506010810190505b6305f5e100831061156a576305f5e10083816115605761155f61214b565b5b0492506008810190505b612710831061158f5761271083816115855761158461214b565b5b0492506004810190505b606483106115b257606483816115a8576115a761214b565b5b0492506002810190505b600a83106115c1576001810190505b80915050919050565b60008073ffffffffffffffffffffffffffffffffffffffff168373ffffffffffffffffffffffffffffffffffffffff161415801561168257508273ffffffffffffffffffffffffffffffffffffffff168473ffffffffffffffffffffffffffffffffffffffff16148061164357506116428484610974565b5b8061168157508273ffffffffffffffffffffffffffffffffffffffff1661166983610afa565b73ffffffffffffffffffffffffffffffffffffffff16145b5b90509392505050565b600073ffffffffffffffffffffffffffffffffffffffff168273ffffffffffffffffffffffffffffffffffffffff16036116fd5760006040517f64a0ae920000000000000000000000000000000000000000000000000000000081526004016116f491906119a9565b60405180910390fd5b600061170b83836000610b51565b9050600073ffffffffffffffffffffffffffffffffffffffff168173ffffffffffffffffffffffffffffffffffffffff161461177f5760006040517f73c6ac6e00000000000000000000000000000000000000000000000000000000815260040161177691906119a9565b60405180910390fd5b505050565b6000604051905090565b600080fd5b600080fd5b60007fffffffff0000000000000000000000000000000000000000000000000000000082169050919050565b6117cd81611798565b81146117d857600080fd5b50565b6000813590506117ea816117c4565b92915050565b6000602082840312156118065761180561178e565b5b6000611814848285016117db565b91505092915050565b60008115159050919050565b6118328161181d565b82525050565b600060208201905061184d6000830184611829565b92915050565b600081519050919050565b600082825260208201905092915050565b60005b8381101561188d578082015181840152602081019050611872565b60008484015250505050565b6000601f19601f8301169050919050565b60006118b582611853565b6118bf818561185e565b93506118cf81856020860161186f565b6118d881611899565b840191505092915050565b600060208201905081810360008301526118fd81846118aa565b905092915050565b6000819050919050565b61191881611905565b811461192357600080fd5b50565b6000813590506119358161190f565b92915050565b6000602082840312156119515761195061178e565b5b600061195f84828501611926565b91505092915050565b600073ffffffffffffffffffffffffffffffffffffffff82169050919050565b600061199382611968565b9050919050565b6119a381611988565b82525050565b60006020820190506119be600083018461199a565b92915050565b6119cd81611988565b81146119d857600080fd5b50565b6000813590506119ea816119c4565b92915050565b60008060408385031215611a0757611a0661178e565b5b6000611a15858286016119db565b9250506020611a2685828601611926565b9150509250929050565b600080600060608486031215611a4957611a4861178e565b5b6000611a57868287016119db565b9350506020611a68868287016119db565b9250506040611a7986828701611926565b9150509250925092565b600060208284031215611a9957611a9861178e565b5b6000611aa7848285016119db565b91505092915050565b611ab981611905565b82525050565b6000602082019050611ad46000830184611ab0565b92915050565b611ae38161181d565b8114611aee57600080fd5b50565b600081359050611b0081611ada565b92915050565b60008060408385031215611b1d57611b1c61178e565b5b6000611b2b858286016119db565b9250506020611b3c85828601611af1565b9150509250929050565b600080fd5b600080fd5b7f4e487b7100000000000000000000000000000000000000000000000000000000600052604160045260246000fd5b611b8882611899565b810181811067ffffffffffffffff82111715611ba757611ba6611b50565b5b80604052505050565b6000611bba611784565b9050611bc68282611b7f565b919050565b600067ffffffffffffffff821115611be657611be5611b50565b5b611bef82611899565b9050602081019050919050565b82818337600083830152505050565b6000611c1e611c1984611bcb565b611bb0565b905082815260208101848484011115611c3a57611c39611b4b565b5b611c45848285611bfc565b509392505050565b600082601f830112611c6257611c61611b46565b5b8135611c72848260208601611c0b565b91505092915050565b60008060008060808587031215611c9557611c9461178e565b5b6000611ca3878288016119db565b9450506020611cb4878288016119db565b9350506040611cc587828801611926565b925050606085013567ffffffffffffffff811115611ce657611ce5611793565b5b611cf287828801611c4d565b91505092959194509250565b60008060408385031215611d1557611d1461178e565b5b6000611d23858286016119db565b9250506020611d34858286016119db565b9150509250929050565b7f4e487b7100000000000000000000000000000000000000000000000000000000600052602260045260246000fd5b60006002820490506001821680611d8557607f821691505b602082108103611d9857611d97611d3e565b5b50919050565b6000606082019050611db3600083018661199a565b611dc06020830185611ab0565b611dcd604083018461199a565b949350505050565b7f4f6e6c79206d61696e436f6e74726163742063616e2063616c6c20746869732060008201527f66756e6374696f6e000000000000000000000000000000000000000000000000602082015250565b6000611e3160288361185e565b9150611e3c82611dd5565b604082019050919050565b60006020820190508181036000830152611e6081611e24565b9050919050565b7f4e487b7100000000000000000000000000000000000000000000000000000000600052601160045260246000fd5b6000611ea182611905565b91507fffffffffffffffffffffffffffffffffffffffffffffffffffffffffffffffff8203611ed357611ed2611e67565b5b600182019050919050565b7f4f6e6c792063726561746f722063616e2063616c6c20746869732066756e637460008201527f696f6e0000000000000000000000000000000000000000000000000000000000602082015250565b6000611f3a60238361185e565b9150611f4582611ede565b604082019050919050565b60006020820190508181036000830152611f6981611f2d565b9050919050565b600081905092915050565b60008190508160005260206000209050919050565b60008154611f9d81611d6d565b611fa78186611f70565b94506001821660008114611fc25760018114611fd75761200a565b60ff198316865281151582028601935061200a565b611fe085611f7b565b60005b8381101561200257815481890152600182019150602081019050611fe3565b838801955050505b50505092915050565b600061201e82611853565b6120288185611f70565b935061203881856020860161186f565b80840191505092915050565b60006120508285611f90565b915061205c8284612013565b91508190509392505050565b600081519050919050565b600082825260208201905092915050565b600061208f82612068565b6120998185612073565b93506120a981856020860161186f565b6120b281611899565b840191505092915050565b60006080820190506120d2600083018761199a565b6120df602083018661199a565b6120ec6040830185611ab0565b81810360608301526120fe8184612084565b905095945050505050565b600081519050612118816117c4565b92915050565b6000602082840312156121345761213361178e565b5b600061214284828501612109565b91505092915050565b7f4e487b7100000000000000000000000000000000000000000000000000000000600052601260045260246000fd5b600060408201905061218f600083018561199a565b61219c6020830184611ab0565b939250505056fea26469706673582212205c681c97d6bef9f055f8b9d2e70ad4bc4e3f8e10511aee79a8fa0765223df12f64736f6c634300081c0033",
  "linkReferences": {},
  "deployedLinkReferences": {}
}